:020000040000FA
:020000001FF0EF
:020001001FD00E
:020002001FBE1F
:020003001FC11B
:020004001FD605
:020005001FF1E9
:020006001FFEDB
:020007001FF8E0
:020008001FE1F6
:020009001FD204
:02000A001FD500
:02000B001FE5EF
:02000C001FE8EB
:02000D001FE4EE
:02000E001FEAE7
:02000F00000AE5
:020010000036B8
:02001100004AA3
:02001200004BA1
:020013000045A6
:02001400003EAC
:020015000030B9
:02001600001FC9
:020017000014D3
:02001800001ACC
:020019000028BD
:02001A00002DB7
:02001B000019CA
:02001C001FFAC9
:02001D001FE1E1
:02001E001FDBE6
:02001F001FEBD5
:020020000000DE
:020021000014C9
:020022000020BC
:020023000028B3
:02002400002AB0
:020025000026B3
:020026000016C2
:020027000000D7
:020028001FF0C7
:020029001FE6D0
:02002A001FEDC8
:02002B001FF6BE
:02002C001FECC7
:02002D001FD9D9
:02002E001FCCE5
:02002F001FD4DC
:020030001FE8C7
:020031000001CC
:02003200000CC0
:020033000013B8
:02003400001FAB
:02003500002F9A
:02003600003791
:02003700003295
:020038000026A0
:020039000022A3
:02003A00002B99
:02003B00003B88
:02003C0000467C
:02003D00003C85
:02003E0000229E
:02003F00000AB5
:020040000003BB
:020041000009B4
:02004200000BB1
:020043000001BA
:020044001FF2A9
:020045001FE3B7
:020046001FDDBC
:020047001FE6B2
:020048001FEFA8
:020049001FE9AD
:02004A001FD7BE
:02004B001FC0D4
:02004C001FB7DC
:02004D001FBED4
:02004E001FCEC3
:02004F001FE1AF
:020050001FFB94
:020051000000AD
:020052001FEBA2
:020053001FD1BB
:020054001FCFBC
:020055001FE7A3
:020056000001A7
:02005700001097
:0200580000178F
:02005900001C89
:02005A0000257F
:02005B00003073
:02005C0000376B
:02005D00003B66
:02005E00004759
:02005F00005649
:02006000005549
:02006100004558
:02006200003D5F
:02006300003E5D
:02006400004159
:02006500003C5D
:02006600003D5B
:02006700004552
:02006800005145
:02006900005B3A
:02006A00004C48
:02006B00001B78
:02006C001FF281
:02006D001FE38F
:02006E001FE78A
:02006F001FED83
:020070001FED82
:020071001FE985
:020072001FE885
:020073001FEB81
:020074001FE883
:020075001FE585
:020076001FF178
:02007700000681
:02007800001B6B
:02007900002D58
:02007A0000384C
:02007B00004241
:02007C00004042
:02007D0000265B
:02007E00000080
:02007F001FE779
:020080001FE57A
:020081001FEA74
:020082001FEA73
:020083001FE775
:020084001FE378
:020085001FE971
:020086001FF861
:02008700000473
:02008800000571
:02008900000174
:02008A001FFE57
:02008B001FF65E
:02008C001FF063
:02008D001FEE64
:02008E001FF35E
:02008F001FFA56
:020090001FFC53
:020091001FFA54
:0200920000006C
:02009300000C5F
:02009400001258
:02009500000663
:020096001FEF5A
:020097001FDA6E
:020098001FD770
:020099001FEA5C
:02009A00000262
:02009B00000B58
:02009C001FFF44
:02009D001FEE54
:02009E001FF051
:02009F00000659
:0200A000002935
:0200A100004815
:0200A200004715
:0200A30000213A
:0200A4001FF14A
:0200A5001FD466
:0200A6001FE356
:0200A7001FFF39
:0200A800001541
:0200A900001B3A
:0200AA0000262E
:0200AB00004310
:0200AC000065ED
:0200AD000074DD
:0200AE000075DB
:0200AF00006FE0
:0200B000005EF0
:0200B100004706
:0200B200002B21
:0200B300001437
:0200B400000248
:0200B500000148
:0200B600000F39
:0200B700000E39
:0200B8001FF235
:0200B9001FCF57
:0200BA001FC263
:0200BB001FC85C
:0200BC001FC95A
:0200BD001FC062
:0200BE001FC65B
:0200BF001FDD43
:0200C0001FF926
:0200C100000736
:0200C20000003C
:0200C3001FFA22
:0200C400000238
:0200C500000B2E
:0200C600000335
:0200C7001FFD1B
:00000001ff
