:020000040000FA
:030000000000E21B
:0300010000011AE1
:0300020000011EDC
:0300030000006793
:0300040001FF7F7A
:0300050001FFA850
:03000600000048AF
:030007000000C82E
:030008000000AB4A
:030009000000AD47
:03000A000000CC27
:03000B0000004AA8
:03000C00000049A8
:03000D000000CA26
:03000E000000AE41
:03000F00000029C5
:0300100001FF717C
:0300110001FF7E6E
:0300120001FFB437
:0300130001FF7674
:0300140001FFEDFC
:0300150001FFCE1A
:0300160001FFE601
:03001700000017CF
:0300180000005590
:03001900000043A1
:03001A00000032B1
:03001B0000006082
:03001C0000006E73
:03001D000000D010
:03001E0000005B84
:03001F0000003DA1
:0300200000002AB3
:0300210000005E7E
:0300220000006477
:0300230001FFECEE
:0300240001FFF6E3
:0300250000005880
:0300260000004790
:0300270000004C8A
:03002800000034A1
:0300290000004391
:03002A000000349F
:03002B0000000FC3
:03002C00000031A0
:03002D0000004A86
:03002E000000CC03
:03002F0000008E40
:030030000000418C
:0300310001FFFBD1
:0300320001FFD8F3
:0300330000001DAD
:0300340000007059
:0300350000006563
:03003600000026A1
:0300370000001EA8
:03003800000017AE
:0300390001FFC6FE
:03003A0001FFCEF5
:03003B0001FFC200
:03003C0001FF9C25
:03003D0001FF8F31
:03003E0001FF5669
:03003F0001FF2599
:0300400001FF0FAE
:0300410001FF8C30
:0300420001FF6358
:0300430001FF17A3
:0300440001FF14A5
:0300450001FF298F
:0300460001FF5A5D
:0300470001FF6650
:0300480001FF4B6A
:0300490001FF8A2A
:03004A00000013A0
:03004B000000367C
:03004C0000000EA3
:03004D0001FFAD03
:03004E0001FFA708
:03004F0001FFDCD2
:030050000000228B
:030051000000AEFE
:030052000000CFDC
:030053000000901A
:0300540000001297
:0300550001FF5652
:0300560001FF8B1C
:0300570001FFDCCA
:0300580001FFE3C2
:030059000000099B
:03005A0001FFC2E1
:03005B0001FFD0D2
:03005C0001FFCCD5
:03005D0001FFB8E8
:03005E0001FFC3DC
:03005F0001FF6E30
:0300600001FF6736
:0300610001FFEEAE
:0300620000003863
:0300630000007B1F
:0300640000005841
:0300650000000F89
:0300660000008A0D
:030067000000C9CD
:030068000000870E
:0300690000006C28
:03006A000000771C
:03006B000000DDB5
:03006C000000DDB4
:03006D000000D2BE
:03006E0000015F2F
:03006F000000BED0
:0300700000004449
:0300710000004349
:030072000000414A
:0300730000008EFC
:0300740000006A1F
:0300750000003553
:030076000000582F
:0300770000004F37
:030078000000A1E4
:030079000000ABD9
:03007A0000005231
:03007B0000002161
:03007C0000003051
:03007D000000A3DD
:03007E000000324D
:03007F0001FFC6B8
:030080000000116C
:0300810000001F5D
:0300820001FF5B20
:0300830001FF7109
:0300840001FF3C3D
:0300850001FF96E2
:0300860000007FF8
:0300870000004036
:0300880001FFCEA7
:0300890001FFCAAA
:03008A0000006F04
:03008B0001FF9CD6
:03008C0001FF323F
:03008D0000004A26
:03008E0000001E51
:03008F0001FF99D5
:0300900001FF7FEE
:0300910001FFC5A7
:0300920000004A21
:0300930001FFF575
:0300940001FFCD9C
:0300950000002F39
:0300960000003730
:0300970001FFC79F
:0300980001FFE87D
:030099000000085C
:03009A0000000063
:03009B0001FFE77B
:03009C0000003130
:03009D0000003D23
:03009E000000114E
:03009F0000003C22
:0300A00000003429
:0300A1000000510B
:0300A20001FFFD5E
:0300A30000002A30
:0300A40001FFFE5B
:0300A50001FFCF89
:0300A6000000490E
:0300A70000006EE8
:0300A80001FFF95C
:0300A90001FF77DD
:0300AA0001FF371C
:0300AB0001FF94BE
:0300AC000000232E
:0300AD000000133D
:0300AE000000143B
:0300AF0001FFED61
:0300B00001FF65E8
:0300B10001FF60EC
:0300B20001FF80CB
:0300B30001FFF456
:0300B40000008FBA
:0300B5000000B098
:0300B60000009CAB
:0300B70001FFEA5C
:0300B80001FFD273
:0300B90001FFEF55
:0300BA0000001B28
:0300BB00000061E1
:0300BC000000EC55
:0300BD000000ED53
:0300BE0000007AC5
:0300BF0000004DF1
:0300C000000043FA
:0300C100000094A8
:0300C200000054E7
:0300C30001FFD466
:0300C40001FF3EFB
:0300C50001FF9A9E
:0300C60001FF7ABD
:0300C70001FF44F2
:00000001ff
