:020000040000FA
:020000001FD609
:020001001FCF0F
:020002001FBE1F
:020003001FBA22
:020004001FC516
:020005001FD109
:020006001FDAFF
:020007001FE1F7
:020008001FDFF8
:020009001FD006
:02000A001FC411
:02000B001FC113
:02000C001FCA09
:02000D001FDAF8
:02000E001FEEE3
:02000F001FF9D7
:020010001FEBE4
:020011001FCD01
:020012001FB716
:020013001FB21A
:020014001FBD0E
:020015001FD4F6
:020016001FE9E0
:020017001FF1D7
:020018001FF7D0
:020019001FFBCB
:02001A001FF8CD
:02001B001FF4D0
:02001C001FF6CD
:02001D001FFDC5
:02001E00000ED2
:02001F000028B7
:02002000003DA1
:02002100004796
:02002200003E9E
:02002300002DAE
:020024000015C5
:020025000006D3
:020026000005D3
:02002700000ACD
:02002800000DC9
:020029000004D1
:02002A001FF9BC
:02002B001FF1C3
:02002C001FE9CA
:02002D001FE9C9
:02002E001FECC5
:02002F001FEAC6
:020030001FDDD2
:020031001FC9E5
:020032001FBFEE
:020033001FCAE2
:020034001FE2C9
:020035001FECBE
:020036001FE4C5
:020037001FE4C4
:020038001FF4B3
:02003900000FB6
:02003A000020A4
:02003B000017AC
:02003C000005BD
:02003D000000C1
:02003E000005BB
:02003F000003BC
:020040000001BD
:020041000005B8
:020042000015A7
:02004300002794
:02004400002F8B
:02004500002792
:02004600002296
:02004700002394
:02004800002B8B
:0200490000377E
:02004A00003E76
:02004B00004370
:02004C0000466C
:02004D00003F72
:02004E0000327E
:02004F00002788
:02005000001B93
:02005100000CA1
:020052001FFE8F
:020053001FF29A
:020054001FE7A4
:020055001FE8A2
:020056001FF396
:020057001FF197
:020058001FDDAA
:020059001FC6C0
:02005A001FB9CC
:02005B001FA0E4
:02005C001F8CF7
:02005D001F9AE8
:02005E001FC3BE
:02005F001FE997
:020060001FFD82
:0200610000019C
:0200620000019B
:020063001FE894
:020064001FB7C4
:020065001F97E3
:020066001F8BEE
:020067001F98E0
:020068001FC0B7
:020069001FF77F
:02006A0000088C
:02006B001FDE96
:02006C001FBFB4
:02006D001FC1B1
:02006E001FD29F
:02006F001FE48C
:020070001FF778
:0200710000028B
:020072001FFB72
:020073001FF27A
:020074001FED7E
:020075001FE684
:020076001FE584
:020077001FF276
:020078001FF671
:020079001FEE78
:02007A001FDE87
:02007B001FCC98
:02007C001FBFA4
:02007D001FBCA6
:02007E001FCC95
:02007F001FE080
:020080001FF46B
:0200810000017C
:02008200000874
:020083001FF963
:020084001FDC7F
:020085001FC991
:020086001FC297
:020087001FB8A0
:020088001FB0A7
:020089001FBC9A
:02008A001FD382
:02008B001FE56F
:02008C001FF063
:02008D001FF55D
:02008E001FF65B
:02008F001FF858
:0200900000006E
:0200910000016C
:0200920000016B
:02009300000665
:02009400000466
:020095001FF555
:020096001FE762
:020097001FE860
:020098001FF156
:02009900000263
:02009A00000A5A
:02009B001FFF45
:02009C001FF64D
:02009D001FFC46
:02009E001FFC45
:02009F001FF050
:0200A0001FDE61
:0200A1001FD668
:0200A2001FDB62
:0200A3001FE359
:0200A4001FE556
:0200A5001FE357
:0200A6001FE653
:0200A7001FEC4C
:0200A8001FE651
:0200A9001FE155
:0200AA001FE055
:0200AB001FE351
:0200AC001FE350
:0200AD001FDE54
:0200AE001FD859
:0200AF001FDD53
:0200B0001FED42
:0200B100000449
:0200B20000103C
:0200B30000103B
:0200B400000842
:0200B5001FFD2D
:0200B6001FEB3E
:0200B7001FDD4B
:0200B8001FE146
:0200B9001FEF37
:0200BA001FF62F
:0200BB001FF034
:0200BC001FE241
:0200BD001FDC46
:0200BE001FE43D
:0200BF001FEA36
:0200C0001FE13E
:0200C1001FCD51
:0200C2001FC35A
:0200C3001FCC50
:0200C4001FE437
:0200C5001FF228
:0200C6001FEE2B
:0200C7001FE335
:00000001ff
