:020000040000FA
:03000000000036C7
:0300010000002FCD
:03000200000054A7
:0300030000008476
:0300040000009E5B
:030005000000A058
:0300060000009F58
:030007000000A353
:030008000000AD48
:030009000000AE46
:03000A0000009E55
:03000B0000008969
:03000C000000777A
:03000D0000006A86
:03000E000000628D
:03000F0000006C82
:0300100000007C71
:0300110000008765
:030012000000915A
:0300130000009852
:030014000000A346
:030015000000A345
:0300160000009B4C
:0300170000008660
:030018000000697C
:03001900000038AC
:03001A0000000FD4
:03001B00000012D0
:03001C0000003FA2
:03001D000000647C
:03001E0000006A75
:03001F000000617D
:0300200000004C91
:03002100000028B4
:0300220001FFFFDC
:0300230001FFE4F6
:0300240001FFE0F9
:0300250001FFF3E5
:03002600000001D6
:0300270001FFFADC
:0300280001FFDFF6
:0300290001FFBC18
:03002A0001FF9E35
:03002B0001FF9B37
:03002C0001FFB021
:03002D0001FFB51B
:03002E0001FFA02F
:03002F0001FF903E
:0300300001FF933A
:0300310001FFAB21
:0300320001FFD0FB
:0300330001FFF5D5
:03003400000000C9
:0300350001FFFBCD
:03003600000003C4
:0300370001FFFACC
:0300380001FFD8ED
:0300390001FFBA0A
:03003A0001FFBB08
:03003B0001FFDCE6
:03003C0001FFFDC4
:03003D00000001BF
:03003E0001FFE8D7
:03003F0001FFC1FD
:0300400001FF9429
:0300410001FF5F5D
:0300420001FF3883
:0300430001FF1D9D
:0300440001FEF9C1
:0300450001FEDADF
:0300460001FEEACE
:0300470001FF11A5
:0300480001FF2491
:0300490001FF288C
:03004A0001FF2F84
:03004B0001FF446E
:03004C0001FF5F52
:03004D0001FF743C
:03004E0001FF7F30
:03004F0001FF8925
:0300500001FF9E0F
:0300510001FFB8F4
:0300520001FFBFEC
:0300530001FFB7F3
:0300540001FFB4F5
:0300550001FFC7E1
:0300560001FFF5B2
:0300570000001492
:0300580000001293
:0300590001FFE4C0
:03005A0001FFAFF4
:03005B0001FF8A18
:03005C0001FF7D24
:03005D0001FF8D13
:03005E0001FFACF3
:03005F0001FFCBD3
:0300600001FFE0BD
:0300610000000498
:0300620000004952
:0300630000008119
:0300640000008712
:0300650000005F39
:0300660000003F58
:0300670000004452
:0300680000006035
:030069000000751F
:03006A0000008112
:03006B000000870B
:03006C000000830E
:03006D000000721E
:03006E0000004D42
:03006F000000246A
:0300700000001578
:0300710000002666
:0300720000004447
:0300730000006129
:0300740000007B0E
:0300750000008008
:0300760000007116
:0300770000006E18
:03007800000087FE
:030079000000A7DD
:03007A000000BDC6
:03007B000000CCB6
:03007C000000BDC4
:03007D00000094EC
:03007E000000700F
:03007F0000006C12
:0300800000007C01
:030081000000A8D4
:030082000000E596
:0300830000011069
:0300840000011662
:030085000000FA7E
:030086000000D99E
:030087000000C0B6
:030088000000B7BE
:030089000000ACC8
:03008A00000086ED
:03008B0000005022
:03008C0000003938
:03008D0000003937
:03008E000000254A
:03008F0001FFF678
:0300900001FFC7A6
:0300910001FFB0BC
:0300920001FFBEAD
:0300930001FFC5A5
:0300940001FFAABF
:0300950001FF76F2
:0300960001FF6007
:0300970001FF80E6
:0300980001FFC1A4
:0300990001FFEF75
:03009A0000000063
:03009B0001FFE082
:03009C0001FFA6BB
:03009D0001FF83DD
:03009E0001FF7FE0
:03009F0001FF85D9
:0300A00001FF90CD
:0300A10001FFA9B3
:0300A20001FFBAA1
:0300A30001FFBF9B
:0300A40001FFBE9B
:0300A50001FFD583
:0300A60000000354
:0300A70000002432
:0300A8000000361F
:0300A9000000371D
:0300AA0000002C27
:0300AB0000002230
:0300AC000000222F
:0300AD0000001E32
:0300AE0000001837
:0300AF0000001E30
:0300B00000003617
:0300B100000057F5
:0300B200000082C9
:0300B3000000A5A5
:0300B4000000A0A9
:0300B500000084C4
:0300B60000006DDA
:0300B700000054F2
:0300B80000004302
:0300B900000049FB
:0300BA00000065DE
:0300BB00000076CC
:0300BC0000006CD5
:0300BD0000003C04
:0300BE0001FFEF50
:0300BF0001FFAA94
:0300C00001FF7FBE
:0300C10001FF7EBE
:0300C20001FF92A9
:0300C30001FF9B9F
:0300C40001FF85B4
:0300C50001FF58E0
:0300C60001FF42F5
:0300C70001FF49ED
:00000001ff
