:020000040000FA
:0200000001FEFF
:0200010001FDFF
:0200020001FDFE
:0200030001FEFC
:020004000000FA
:020005000000F9
:020006000000F8
:020007000000F7
:020008000000F6
:020009000000F5
:02000A000000F4
:02000B000000F3
:02000C0001FFF2
:02000D0001FFF1
:02000E0001FEF1
:02000F0001FEF0
:0200100001FEEF
:0200110001FEEE
:0200120001FEED
:0200130001FFEB
:020014000000EA
:020015000000E9
:020016000001E7
:020017000001E6
:020018000000E6
:020019000000E5
:02001A0001FEE5
:02001B0001FDE5
:02001C0001FDE4
:02001D0001FDE3
:02001E0001FCE3
:02001F0001FCE2
:0200200001FCE1
:0200210001FCE0
:0200220001FDDE
:0200230001FDDD
:0200240001FEDB
:0200250001FFD9
:0200260001FFD8
:0200270001FED8
:0200280001FED7
:0200290001FED6
:02002A0001FFD4
:02002B000000D3
:02002C000000D2
:02002D000001D0
:02002E000001CF
:02002F000001CE
:020030000002CC
:020031000002CB
:020032000003C9
:020033000003C8
:020034000002C8
:020035000002C7
:020036000001C7
:020037000001C6
:020038000001C5
:020039000001C4
:02003A000001C3
:02003B000001C2
:02003C000002C0
:02003D000002BF
:02003E000001BF
:02003F000000BF
:020040000000BE
:020041000000BD
:020042000000BC
:020043000000BB
:020044000001B9
:020045000001B8
:020046000001B7
:020047000000B7
:020048000000B6
:020049000000B5
:02004A000000B4
:02004B000000B3
:02004C000000B2
:02004D0001FFB1
:02004E0001FEB1
:02004F0001FEB0
:0200500001FEAF
:0200510001FEAE
:0200520001FEAD
:0200530001FFAB
:0200540001FFAA
:0200550001FFA9
:0200560001FEA9
:0200570001FDA9
:0200580001FCA9
:0200590001FCA8
:02005A0001FCA7
:02005B0001FCA6
:02005C0001FDA4
:02005D0001FEA2
:02005E0001FEA1
:02005F0001FF9F
:0200600001FE9F
:0200610001FE9E
:0200620001FD9E
:0200630001FC9E
:0200640001FC9D
:0200650001FD9B
:0200660001FE99
:0200670001FF97
:0200680001FF96
:0200690001FF95
:02006A0001FE95
:02006B0001FE94
:02006C0001FD94
:02006D0001FD93
:02006E0001FD92
:02006F0001FE90
:0200700001FE8F
:0200710001FF8D
:0200720000008C
:0200730000008B
:0200740000008A
:0200750001FF89
:0200760001FE89
:0200770001FE88
:0200780001FE87
:0200790001FE86
:02007A0001FE85
:02007B0001FF83
:02007C00000082
:02007D00000081
:02007E00000080
:02007F0000017E
:0200800000017D
:0200810000017C
:0200820000017B
:0200830000017A
:02008400000179
:02008500000178
:02008600000177
:02008700000176
:02008800000175
:02008900000075
:02008A00000074
:02008B00000073
:02008C00000171
:02008D00000170
:02008E0000016F
:02008F0000006F
:0200900001FF6E
:0200910001FD6F
:0200920001FC6F
:0200930001FB6F
:0200940001FC6D
:0200950001FD6B
:0200960001FF68
:02009700000067
:02009800000165
:02009900000263
:02009A00000361
:02009B0000045F
:02009C0000035F
:02009D0000035E
:02009E0000025E
:02009F0000025D
:0200A00000035B
:0200A10000025B
:0200A20000025A
:0200A30000005B
:0200A40000005A
:0200A500000059
:0200A600000058
:0200A700000156
:0200A800000254
:0200A900000253
:0200AA00000351
:0200AB00000251
:0200AC00000250
:0200AD00000150
:0200AE0000014F
:0200AF0000014E
:0200B00000014D
:0200B10000004D
:0200B20000004C
:0200B30000004B
:0200B40000004A
:0200B500000148
:0200B600000246
:0200B700000344
:0200B800000343
:0200B900000342
:0200BA00000242
:0200BB00000241
:0200BC00000240
:0200BD0000023F
:0200BE0000023E
:0200BF0000023D
:0200C00000013D
:0200C10000013C
:0200C20000013B
:0200C30000013A
:0200C400000139
:0200C500000138
:0200C600000137
:0200C700000136
:00000001ff
