:020000040000FA
:020000000000FE
:020001000000FD
:020002000000FC
:020003000000FB
:0200040001FFFA
:0200050001FFF9
:0200060001FFF8
:020007000000F7
:020008000000F6
:020009000000F5
:02000A000000F4
:02000B0001FFF3
:02000C0001FFF2
:02000D0001FFF1
:02000E0001FFF0
:02000F000000EF
:0200100001FFEE
:0200110001FEEE
:0200120001FDEE
:0200130001FCEE
:0200140001FDEC
:0200150001FEEA
:0200160001FFE8
:020017000000E7
:020018000000E6
:020019000000E5
:02001A000000E4
:02001B000000E3
:02001C0001FFE2
:02001D0001FFE1
:02001E0001FFE0
:02001F000000DF
:020020000000DE
:020021000000DD
:020022000000DC
:020023000000DB
:020024000000DA
:0200250001FFD9
:0200260001FED9
:0200270001FED8
:0200280001FED7
:0200290001FFD5
:02002A000000D4
:02002B000000D3
:02002C000000D2
:02002D000000D1
:02002E000000D0
:02002F0001FFCF
:0200300001FECF
:0200310001FECE
:0200320001FDCE
:0200330001FECC
:0200340001FFCA
:020035000000C9
:020036000000C8
:020037000000C7
:020038000000C6
:020039000000C5
:02003A0001FEC5
:02003B0001FDC5
:02003C0001FCC5
:02003D0001FCC4
:02003E0001FCC3
:02003F0001FCC2
:0200400001FDC0
:0200410001FEBE
:0200420001FFBC
:020043000000BB
:020044000000BA
:0200450001FFB9
:0200460001FFB8
:0200470001FFB7
:020048000000B6
:020049000001B4
:02004A000001B3
:02004B000002B1
:02004C000001B1
:02004D000001B0
:02004E000000B0
:02004F000000AF
:020050000000AE
:020051000000AD
:020052000000AC
:020053000000AB
:020054000000AA
:0200550001FFA9
:0200560001FFA8
:0200570001FEA8
:0200580001FEA7
:0200590001FFA5
:02005A0001FFA4
:02005B0001FFA3
:02005C0001FFA2
:02005D0001FFA1
:02005E000000A0
:02005F0000009F
:0200600000009E
:0200610000009D
:0200620000009C
:0200630000009B
:0200640000009A
:0200650001FF99
:0200660001FE99
:0200670001FE98
:0200680001FE97
:0200690001FF95
:02006A00000094
:02006B00000093
:02006C00000191
:02006D0000028F
:02006E0000028E
:02006F0000028D
:0200700000038B
:0200710000038A
:0200720000028A
:02007300000289
:02007400000189
:02007500000188
:02007600000187
:02007700000186
:02007800000185
:02007900000184
:02007A00000183
:02007B00000083
:02007C00000082
:02007D00000081
:02007E00000080
:02007F0000007F
:0200800001FF7E
:0200810001FF7D
:0200820001FF7C
:0200830000007B
:0200840000007A
:02008500000178
:02008600000177
:02008700000176
:02008800000076
:02008900000075
:02008A00000074
:02008B00000073
:02008C00000072
:02008D00000071
:02008E00000070
:02008F0001FF6F
:0200900001FF6E
:0200910001FE6E
:0200920001FE6D
:0200930001FF6B
:0200940001FF6A
:02009500000069
:02009600000068
:02009700000067
:02009800000066
:02009900000065
:02009A00000064
:02009B00000063
:02009C00000062
:02009D0001FF61
:02009E0001FF60
:02009F0001FE60
:0200A00001FE5F
:0200A10001FE5E
:0200A20001FE5D
:0200A30001FF5B
:0200A40001FF5A
:0200A500000059
:0200A600000058
:0200A700000057
:0200A800000056
:0200A90001FF55
:0200AA0001FE55
:0200AB0001FE54
:0200AC0001FE53
:0200AD0001FE52
:0200AE0001FF50
:0200AF0000004F
:0200B00000004E
:0200B10000004D
:0200B20000004C
:0200B30000004B
:0200B40001FF4A
:0200B500000049
:0200B600000048
:0200B70001FF47
:0200B80001FF46
:0200B90001FF45
:0200BA0001FF44
:0200BB0001FF43
:0200BC0001FF42
:0200BD0001FF41
:0200BE00000040
:0200BF0000003F
:0200C00000003E
:0200C10000003D
:0200C20000003C
:0200C30000003B
:0200C40000003A
:0200C500000039
:0200C600000038
:0200C700000037
:00000001ff
