:020000040000FA
:020000001FF3EC
:020001001FFEE0
:020002000007F5
:020003000010EB
:020004000017E3
:02000500001DDC
:02000600001EDA
:02000700001CDB
:020008000016E0
:020009000011E4
:02000A00000AEA
:02000B000007EC
:02000C000008EA
:02000D00000EE3
:02000E000016DA
:02000F00001AD5
:020010000019D5
:020011000014D9
:02001200000EDE
:02001300000DDE
:020014000013D7
:02001500001BCE
:020016000021C7
:020017000021C6
:02001800001FC7
:020019000019CC
:02001A000016CE
:02001B000017CC
:02001C00001DC5
:02001D000020C1
:02001E00001DC3
:02001F000014CB
:020020000009D5
:020021000004D9
:020022000008D4
:020023000012C9
:02002400001AC0
:02002500001BBE
:020026000015C3
:02002700000ACD
:020028000002D4
:020029001FFFB7
:02002A000001D3
:02002B000005CE
:02002C00000BC7
:02002D00000EC3
:02002E00000FC1
:02002F00000EC1
:02003000000EC0
:02003100000EBF
:02003200000DBF
:02003300000BC0
:020034000007C3
:020035000006C3
:020036000008C0
:02003700000FB8
:020038000013B3
:020039000011B4
:02003A00000ABA
:02003B000000C3
:02003C001FF4AF
:02003D001FECB6
:02003E001FEAB7
:02003F001FF0B0
:020040001FFCA3
:020041000006B7
:020042000009B3
:020043000007B4
:020044000000BA
:020045001FFB9F
:020046001FF4A5
:020047001FEEAA
:020048001FEBAC
:020049001FECAA
:02004A001FF3A2
:02004B001FFA9A
:02004C000000B2
:02004D000000B1
:02004E001FFE93
:02004F001FFC94
:020050001FFE91
:020051000003AA
:020052000007A5
:020053000003A8
:020054001FFB90
:020055001FF298
:020056001FEC9D
:020057001FE99F
:020058001FE6A1
:020059001FE6A0
:02005A001FE89D
:02005B001FE99B
:02005C001FE89B
:02005D001FE69C
:02005E001FE59C
:02005F001FE59B
:020060001FEB94
:020061001FF28C
:020062001FFA83
:020063001FFA82
:020064001FF388
:020065001FEB8F
:020066001FE297
:020067001FDF99
:020068001FDD9A
:020069001FDB9B
:02006A001FD89D
:02006B001FD69E
:02006C001FD89B
:02006D001FE290
:02006E001FED84
:02006F001FF779
:020070001FF976
:020071001FF27C
:020072001FE687
:020073001FD894
:020074001FD19A
:020075001FD595
:020076001FE683
:020077001FF870
:02007800000482
:0200790000097C
:02007A0000087C
:02007B0000077C
:02007C0000077B
:02007D0000077A
:02007E0000057B
:02007F001FFF61
:020080001FFA65
:020081001FFB63
:0200820000027A
:02008300000B70
:02008400000E6C
:02008500000D6C
:02008600000870
:0200870000096E
:0200880000096D
:02008900000F66
:02008A00001163
:02008B00000F64
:02008C0000086A
:02008D0000046D
:02008E0000046C
:02008F00000D62
:02009000001B53
:02009100002845
:02009200002D3F
:02009300002B40
:02009400002842
:02009500002445
:02009600001E4A
:02009700001750
:02009800001155
:02009900000F56
:02009A00001252
:02009B0000144F
:02009C0000144E
:02009D0000154C
:02009E0000154B
:02009F0000114E
:0200A000000955
:0200A10000005D
:0200A2001FFF3E
:0200A300000556
:0200A400001149
:0200A500001841
:0200A600001741
:0200A700000F48
:0200A800000650
:0200A900000055
:0200AA001FFC39
:0200AB001FFB39
:0200AC001FFC37
:0200AD00000150
:0200AE00000A46
:0200AF0000143B
:0200B000001A34
:0200B100001934
:0200B200001339
:0200B300000843
:0200B4001FFD2E
:0200B5001FFA30
:0200B600000048
:0200B700000A3D
:0200B800000F37
:0200B900000B3A
:0200BA00000242
:0200BB001FFE26
:0200BC001FFC27
:0200BD001FFA28
:0200BE001FF928
:0200BF001FF927
:0200C0001FFB24
:0200C1001FFF1F
:0200C200000735
:0200C300001427
:0200C400001F1B
:0200C500002217
:0200C600001D1B
:0200C700001621
:00000001ff
