:020000040000FA
:0300000001FD6D92
:0300010001FD8579
:0300020001FDB647
:0300030001FDE319
:0300040001FE6694
:0300050001FF8870
:0300060000009166
:03000700000129CC
:0300080000013DB7
:030009000000777D
:03000A0001FF3EB5
:03000B0001FF24CE
:03000C000000BC35
:03000D000002BB33
:03000E000003C923
:03000F00000413D7
:030010000003E00A
:030011000002CE1C
:030012000001A347
:030013000001AB3E
:030014000002885F
:0300150000030CD9
:03001600000335AF
:030017000002984C
:030018000000D312
:0300190001FFD410
:03001A000000489B
:03001B000000E5FD
:03001C00000108D8
:03001D000000D808
:03001E000000934C
:03001F0001FFD00E
:0300200001FEA43A
:0300210001FE15C8
:0300220001FEB22A
:0300230000005A80
:0300240000015A7E
:030025000000A632
:0300260001FF6374
:0300270001FF7561
:0300280001FFF6DF
:0300290000001DB7
:03002A0000009340
:03002B000000E7EB
:03002C000001BD13
:03002D000002F6D8
:03002E000003309C
:03002F00000222AA
:030030000000F2DB
:0300310000009F2D
:0300320000010DBD
:030033000001CCFD
:0300340000021FA8
:0300350000023A8C
:03003600000215B0
:030037000001C005
:0300380000019232
:030039000001B90A
:03003A0000022F92
:03003B000002269A
:03003C0000025867
:03003D0000037F3E
:03003E000003D3E9
:03003F000002FEBE
:0300400000025962
:030041000001F2C9
:030042000001A01A
:0300430000014772
:03004400000107B1
:0300450000006A4E
:0300460000006552
:030047000000B600
:030048000000199C
:0300490001FF9123
:03004A0001FF8330
:03004B0001FF931F
:03004C0001FFA110
:03004D0001FEC9E8
:03004E0001FE248C
:03004F0001FF139B
:030050000000624B
:0300510000015556
:0300520000022C7D
:030053000002C7E1
:030054000002A502
:030055000002277F
:0300560000017135
:030057000000D1D5
:0300580000006D38
:030059000000851F
:03005A0000010A98
:03005B000002128E
:03005C0000021C83
:03005D0000005848
:03005E0001FF029D
:03005F0001FDC6DA
:0300600001FDACF3
:0300610001FF326A
:030062000000712A
:0300630000011E7B
:030064000000C7D2
:0300650000002276
:0300660001FFC8CF
:0300670001FF692D
:0300680001FF1382
:0300690001FEF99C
:03006A0001FF2C67
:03006B0001FED9BA
:03006C0001FF226F
:03006D0000005739
:03006E000000E4AB
:03006F0000003D51
:0300700001FF6726
:0300710001FFA9E3
:0300720000002A61
:03007300000096F4
:030074000000F297
:0300750000002D5B
:0300760001FED3B5
:0300770001FE0384
:0300780001FDD0B7
:0300790001FE3D48
:03007A0001FE681C
:03007B0001FEDCA7
:03007C0001FF9BE6
:03007D0001FF661A
:03007E0001FE2B55
:03007F0001FCEA97
:0300800001FD5728
:0300810001FF3547
:0300820000011B5F
:030083000001C4B5
:03008400000088F1
:0300850001FEF287
:0300860001FEA8D0
:0300870001FFFE78
:0300880000012E46
:030089000000FF75
:03008A0000009AD9
:03008B00000083EF
:03008C0000015818
:03008D0000026509
:03008E0000032A42
:03008F00000395D6
:030090000002B1BA
:0300910000012B40
:0300920000005219
:030093000000C5A5
:0300940000011E4A
:030095000000D296
:03009600000085E2
:0300970000003036
:0300980000003332
:030099000000154F
:03009A0001FE75EF
:03009B0001FC3530
:03009C0001FBCC99
:03009D0001FD243E
:03009E0001FE0C54
:03009F0001FE441B
:0300A00001FE540A
:0300A10001FF0854
:0300A20001FF8FCC
:0300A30001FF0A50
:0300A40001FF5405
:0300A50000005DFB
:0300A60000011343
:0300A70000014114
:0300A800000097BE
:0300A90001FFAAAA
:0300AA0001FF64EF
:0300AB000000371B
:0300AC00000155FB
:0300AD000001133C
:0300AE0001FFBB94
:0300AF0001FEBD92
:0300B00001FF5EEF
:0300B1000000AD9F
:0300B200000191B9
:0300B30000017ECB
:0300B40001FFDD6C
:0300B50001FE79D0
:0300B60001FE67E1
:0300B70001FE1730
:0300B80001FE54F2
:0300B9000000172D
:0300BA0000011230
:0300BB00000081C1
:0300BC0001FFE35E
:0300BD0001FFCF71
:0300BE0001FF6ED1
:0300BF0001FE90AF
:0300C00001FE48F6
:0300C10001FEF24B
:0300C20001FFD665
:0300C30001FFBE7C
:0300C40001FF82B7
:0300C50001FFE157
:0300C60000003DFA
:0300C700000083B3
:00000001ff
