:020000040000FA
:0300000001FE20DE
:0300010000010CEF
:030002000000AF4C
:0300030001FF39C1
:0300040001FED822
:0300050001FD33C7
:0300060001FD3EBB
:0300070001FE1ADD
:0300080000020AE9
:030009000001B93A
:03000A0001FF3BB8
:03000B0001FDCA2A
:03000C0001FE7F73
:03000D000001618E
:03000E000001A14D
:03000F000000AB43
:0300100001FDF4FB
:0300110001FDEFFF
:0300120001FDF4F9
:0300130001FDC329
:0300140001FED614
:0300150001FF07E1
:0300160001FE2ABE
:0300170001FE786F
:0300180001FFB82D
:0300190001FFAD37
:03001A0001FE4A9A
:03001B0001FFFCE6
:03001C00000319C5
:03001D000001B52A
:03001E0000013BA3
:03001F000002A537
:030020000001DC00
:0300210001FF7D5F
:0300220000006576
:0300230001FEF9E2
:0300240001FD37A4
:0300250001FFB721
:0300260000013E98
:0300270001FF18BE
:0300280001FE0ACC
:0300290001FBCF09
:03002A0001FBC017
:03002B0001FE448F
:03002C0001FF6C65
:03002D0000006769
:03002E0001FEC40C
:03002F0001FDA32D
:0300300001FB359C
:0300310001FD725C
:0300320000006566
:0300330001FEC407
:0300340001FEBD0D
:030035000001D9EE
:03003600000125A1
:0300370001FEC9FE
:0300380000016D57
:0300390001FB3F89
:03003A0001F8B119
:03003B0001FC21A4
:03003C0001FB378E
:03003D0001FB398B
:03003E0001F8AC1A
:03003F0001FCBD04
:0300400001FD16A9
:0300410001FEF1CC
:0300420000027F3A
:0300430001FE6D4E
:0300440001FD4B70
:0300450000004870
:0300460001FD6257
:0300470001F9FDBF
:0300480001FC9721
:0300490000006C48
:03004A000001CDE5
:03004B0001FF06AC
:03004C0001FDE4CF
:03004D0001FDBAF8
:03004E0000010EA0
:03004F0001FFD2DC
:0300500001FE703E
:0300510001FEA409
:0300520001FFD0DB
:0300530000011495
:0300540001FF3277
:0300550001FFB9EF
:0300560001FF7D2A
:0300570001FCC0E9
:0300580001FD6B3C
:03005900000000A4
:03005A000001B6EC
:03005B000002831D
:03005C000002039C
:03005D0000021B83
:03005E0000039A02
:03005F0000036437
:030060000001ABF1
:030061000000B5E7
:030062000000C0DB
:030063000001B4E5
:030064000002CACD
:0300650000015443
:0300660001FF0196
:0300670001FEAAED
:0300680001FA6535
:0300690001FD1D79
:03006A0000015D35
:03006B0001FF830F
:03006C0001FF4E43
:03006D0001FF850B
:03006E0001FD5938
:03006F0001FF8509
:030070000002315A
:0300710000023D4D
:0300720000003F4C
:0300730000015732
:030074000000C9C0
:03007500000099EF
:030076000003D5AF
:0300770000024C38
:0300780000027D06
:0300790000003D47
:03007A0001FF3E45
:03007B0001FF8CF6
:03007C0000000978
:03007D0001FE265B
:03007E0001FF1B64
:03007F0001FF433B
:0300800001FDDFA0
:0300810001FE81FC
:0300820001FE2656
:0300830000021A5E
:030084000003FF77
:030085000002BBBB
:030086000001B2C4
:030087000000591D
:030088000002145F
:030089000001E291
:03008A0001FF97DC
:03008B00000096DC
:03008C0000012D43
:03008D0000010A65
:03008E000000016E
:03008F000001224B
:03009000000282E9
:0300910001FFC8A4
:0300920001FE0C60
:0300930001FFD298
:0300940001FE3139
:0300950001FE2445
:030096000001D393
:030097000001461F
:0300980000012044
:030099000001DB88
:03009A0001FFFA69
:03009B000003F867
:03009C000002ACB3
:03009D0001FFE17F
:03009E0000031A42
:03009F000003401B
:0300A00000023823
:0300A1000003FE5B
:0300A20000065401
:0300A300000487CF
:0300A4000000CF8A
:0300A50001FEFB5E
:0300A60000016AEC
:0300A70000001244
:0300A8000002D57E
:0300A90000018EC5
:0300AA000000470C
:0300AB0000022F21
:0300AC000001341C
:0300AD000000222E
:0300AE0001FDF958
:0300AF0001FD2F21
:0300B00001FF202D
:0300B100000165E6
:0300B20000023019
:0300B30000041E28
:0300B4000000D772
:0300B50001FE3C0D
:0300B60001FC83C7
:0300B70001FF60E6
:0300B80001FF76CF
:0300B9000001E360
:0300BA000001C37F
:0300BB000000DA68
:0300BC000000AC95
:0300BD0001FF3F01
:0300BE000002201D
:0300BF0001FF41FD
:0300C00001FFB786
:0300C10001FE8AB3
:0300C20001FDBB82
:0300C30001FAE758
:0300C40001FDC17A
:00000001ff
