:020000040000FA
:0300000001FF8E6F
:0300010001FF33C9
:0300020001FF14E7
:0300030001FEFDFE
:0300040001FEED0D
:0300050001FEFAFF
:0300060001FF03F4
:0300070001FF14E2
:0300080001FF38BD
:0300090001FF2FC5
:03000A0001FEFDF7
:03000B0001FEFBF8
:03000C0001FF41B0
:03000D0001FFB13F
:03000E0001FFFEF1
:03000F0001FFE40A
:0300100001FF9558
:0300110001FF6983
:0300120001FF8566
:0300130001FFD01A
:0300140000000ADF
:0300150000000CDC
:0300160001FFECFB
:0300170001FFD412
:0300180001FFDB0A
:0300190001FFE103
:03001A0001FFC71C
:03001B0001FFB131
:03001C0001FFB829
:03001D0001FFBD23
:03001E0001FFD10E
:03001F0001FFF3EB
:0300200000000CD1
:0300210001FFF6E6
:0300220001FFDEFD
:0300230001FFCB0F
:0300240001FFAC2D
:0300250001FFBF19
:03002600000022B5
:0300270000009F37
:030028000000D9FC
:030029000000AD27
:03002A0000002FA4
:03002B0001FFAE24
:03002C0001FF9938
:03002D0001FFDFF1
:03002E00000024AB
:03002F0000002AA4
:0300300001FFF6D7
:0300310001FFC309
:0300320001FFA823
:0300330001FFBB0F
:0300340001FFFCCD
:0300350000002C9C
:0300360000004C7B
:0300370000007155
:030038000000794C
:0300390000004A7A
:03003A00000002C1
:03003B0001FFC4FE
:03003C0001FF9A27
:03003D0001FF8A36
:03003E0001FFB30C
:03003F0000000AB4
:030040000000328B
:0300410000002795
:03004200000012A9
:0300430001FFDBDF
:0300440001FF9227
:0300450001FF6D4B
:0300460001FF595E
:0300470001FF6155
:0300480001FF8A2B
:0300490001FF852F
:03004A0001FF654E
:03004B0001FF7141
:03004C0001FF921F
:03004D0001FF9F11
:03004E0001FF921D
:03004F0001FF832B
:0300500001FF6944
:0300510001FF604C
:0300520001FF9A11
:0300530001FFDECC
:03005400000000A9
:0300550000000F99
:0300560000001394
:0300570000001591
:0300580000001C89
:030059000000287C
:03005A000000663D
:03005B000000A002
:03005C000000742D
:03005D0000000799
:03005E0001FFA4FB
:03005F0001FF7A24
:0300600001FF9409
:0300610001FFEBB1
:0300620000004D4E
:0300630000008317
:0300640000004A4F
:0300650001FFB3E5
:0300660001FF7324
:0300670001FFCCCA
:0300680000003A5B
:0300690000006331
:03006A000000444F
:03006B0000002270
:03006C0000002869
:03006D0000004947
:03006E0000008609
:03006F000000A5E9
:0300700000007F0E
:0300710000002C60
:0300720001FFE1AA
:0300730001FFE0AA
:0300740001FFF693
:0300750000001078
:030076000000493E
:0300770000005036
:030078000000067F
:0300790001FF6F15
:03007A0001FED0B4
:03007B0001FEA0E3
:03007C0001FEE39F
:03007D0001FF4B35
:03007E0001FF83FC
:03007F0001FF6519
:0300800001FF1D60
:0300810001FEEE8F
:0300820001FEDAA2
:0300830001FECDAE
:0300840001FEED8D
:0300850001FF1167
:0300860001FF1F58
:0300870001FF2551
:0300880001FF2E47
:0300890001FF5123
:03008A0001FF81F2
:03008B0001FF8AE8
:03008C0001FF660B
:03008D0001FF4927
:03008E0001FF2E41
:03008F0001FF2D41
:0300900001FF412C
:0300910001FF511B
:0300920001FF6407
:0300930001FF83E7
:0300940001FFC9A0
:0300950000001A4E
:0300960000006304
:03009700000089DD
:03009800000079EC
:0300990000005212
:03009A000000491A
:03009B000000560C
:03009C0000003F22
:03009D0001FFFA66
:03009E0001FFD48B
:03009F0000000856
:0300A0000000500D
:0300A10000006FED
:0300A200000062F9
:0300A30000005208
:0300A40000003029
:0300A50001FFFE5A
:0300A60001FFE770
:0300A70001FFE86E
:0300A80001FFE174
:0300A90001FFDD77
:0300AA0001FFBA99
:0300AB0001FF91C1
:0300AC0001FF85CC
:0300AD0001FF84CC
:0300AE0001FF9EB1
:0300AF0001FFBA94
:0300B00001FFC885
:0300B10001FFCE7E
:0300B20001FFC586
:0300B30001FFC882
:0300B40001FFE069
:0300B50001FFFD4B
:0300B6000000093E
:0300B70000004DF9
:0300B8000000B293
:0300B9000000F450
:0300BA000000D76C
:0300BB00000081C1
:0300BC00000096AB
:0300BD000001300F
:0300BE00000198A6
:0300BF0000018CB1
:0300C000000164D8
:0300C10000013B00
:0300C20000010E2C
:0300C3000000BF7B
:0300C400000067D2
:0300C500000060D8
:0300C600000084B3
:0300C700000072C4
:0300C80000004FE6
:0300C90000004EE6
:0300CA0000006CC7
:0300CB00000078BA
:0300CC0000006DC4
:0300CD0000006EC2
:0300CE00000075BA
:0300CF00000049E5
:0300D00001FFDF4E
:0300D10001FFBB71
:0300D20001FFE447
:0300D30000004AE0
:0300D4000000CA5F
:0300D5000000FD2B
:0300D6000000A780
:0300D70000001511
:0300D80001FFBE67
:0300D90001FFA97B
:0300DA0001FFD44F
:0300DB00000031F1
:0300DC0000006BB6
:0300DD00000058C8
:0300DE0000002CF3
:0300DF00000023FB
:0300E00000004FCE
:0300E100000071AB
:0300E20000008C8F
:0300E30000008D8D
:0300E400000056C3
:0300E50001FFFD1B
:0300E60001FFCC4B
:0300E70001FFE432
:0300E8000000090C
:0300E90000000E06
:0300EA0001FFE62D
:0300EB0001FF9A78
:0300EC0001FF7E93
:0300ED0001FFC14F
:0300EE00000026E9
:0300EF000000907E
:0300F0000000BD50
:0300F1000000C14B
:0300F2000000AD5E
:0300F30000006F9B
:0300F400000054B5
:0300F500000068A0
:0300F60000006A9D
:0300F700000053B3
:0300F80000005BAA
:0300F900000058AC
:0300FA00000030D3
:0300FB0001FFCA38
:0300FC0001FF679A
:0300FD0001FF4FB1
:0300FE0001FF8F70
:0300FF0001FFA658
:0301000001FF7884
:0301010001FF6497
:0301020001FF708A
:0301030001FFA653
:0301040001FFD325
:0301050001FFDB1C
:0301060001FFC333
:0301070001FFD91C
:03010800000034C0
:0301090000009261
:03010A000000AA48
:03010B000000B33E
:03010C000000CC24
:03010D000000E708
:03010E000000F7F7
:03010F000000D31A
:0301100000008666
:0301110000002AC1
:03011200000016D4
:03011300000046A3
:0301140000007D6B
:0301150000009156
:030116000000598D
:03011700000005E0
:0301180001FFB430
:0301190001FF974C
:03011A0001FFDF03
:03011B0000007170
:03011C000000CA16
:03011D000000D10E
:03011E000000E2FC
:03011F0000011EBE
:0301200000013BA0
:03012100000116C4
:030122000000E6F4
:030123000000B425
:0301240000009444
:0301250000009542
:0301260000009640
:030127000000CA0B
:03012800000123B0
:0301290000013999
:03012A00000115BC
:03012B000000F1E0
:03012C000000AF21
:03012D000000428D
:03012E00000000CE
:03012F0001FFF3DA
:0301300001FFC00C
:0301310001FF8B40
:0301320001FF9139
:0301330001FF6A5F
:0301340001FF0ABE
:0301350001FED7F1
:0301360001FEE3E4
:0301370001FF01C4
:0301380001FF15AF
:0301390001FF3B88
:03013A0001FF7052
:03013B0001FF8938
:03013C0001FF3E82
:03013D0001FED3ED
:03013E0001FECAF5
:03013F0001FF01BC
:0301400001FF5765
:0301410001FFAF0C
:0301420001FFF1C9
:0301430000000DAC
:0301440000000AAE
:0301450001FFDCDB
:0301460001FFD0E6
:0301470001FFCDE8
:0301480001FFB5FF
:0301490001FFA40F
:03014A0001FFB5FD
:03014B0001FFECC5
:03014C0001FFB8F8
:03014D0001FF2C83
:03014E0001FF09A5
:03014F0001FF515C
:0301500001FFCCE0
:0301510000001992
:0301520000002684
:0301530000002188
:0301540000001D8B
:0301550000005C4B
:030156000000C4E2
:030157000000FEA7
:030158000000EABA
:030159000000C9DA
:03015A000000BDE5
:03015B000000DCC5
:03015C0000011E81
:03015D0000015A44
:03015E0000016B32
:03015F000001108C
:0301600000009804
:0301610000005546
:0301620000005F3B
:030163000000B3E6
:0301640000012077
:0301650000017B1B
:030166000001B3E2
:030167000001D3C1
:0301680000020092
:0301690000020A87
:03016A000001D7BA
:03016B0000017719
:03016C0000011778
:03016D000000A6E9
:03016E0000006826
:03016F000000B7D6
:0301700000011675
:0301710000012268
:0301720000011079
:030173000000F594
:0301740000008503
:0301750001FFFD8A
:0301760001FFF294
:030177000000374E
:0301780000006F15
:0301790000008201
:03017A0000004E34
:03017B0000002C55
:03017C000000463A
:03017D0000006D12
:03017E000000AAD4
:03017F000000BCC1
:03018000000094E8
:0301810000006219
:0301820000003F3B
:0301830000006316
:030184000000D8A0
:030185000001284E
:0301860000014431
:0301870000014034
:030188000001046F
:03018900000099DA
:03018A0000002C46
:03018B0001FFC0B1
:03018C0001FF660A
:03018D0001FF620D
:03018E0001FFC8A6
:03018F000000333A
:030190000000412B
:0301910000001754
:0301920001FFB4B6
:0301930001FF2148
:0301940001FEC4A5
:0301950001FEA9BF
:0301960001FEA6C1
:0301970001FEB4B2
:0301980001FED491
:0301990001FED094
:03019A0001FECF94
:03019B0001FEC49E
:03019C0001FED48D
:03019D0001FF243B
:03019E0001FF63FB
:03019F0001FF421B
:0301A00001FEC29B
:0301A10001FE421A
:0301A20001FE0E4D
:0301A30001FE4614
:0301A40001FEC693
:0301A50001FF4D0A
:0301A60001FF8FC7
:0301A70001FF8EC7
:0301A80001FF91C3
:0301A90001FFB49F
:0301AA0001FFD87A
:0301AB0001FFFB56
:0301AC0000000749
:0301AD000000034C
:0301AE0000001B33
:0301AF0000006CE1
:0301B0000000B993
:0301B1000000AAA1
:0301B200000060EA
:0301B30000001C2D
:0301B40001FFEA5E
:0301B50001FFEB5C
:0301B60000000D39
:0301B70000000441
:0301B80001FFC97B
:0301B90001FF8CB7
:0301BA0001FF9EA4
:0301BB0001FFC27F
:0301BC0001FFC779
:0301BD0001FFAC93
:0301BE0001FF9EA0
:0301BF0001FFEB52
:0301C00000005CE0
:0301C100000074C7
:0301C20001FFFF3B
:0301C30001FF62D7
:0301C40001FF57E1
:0301C50000000730
:0301C6000000CD69
:0301C70000010C28
:0301C8000000FC38
:0301C90000011121
:0301CA00000139F8
:0301CB00000142EE
:0301CC000000F63A
:0301CD00000079B6
:0301CE0000000A24
:0301CF0001FFE944
:0301D00001FFD05C
:0301D10001FF4DDE
:0301D20001FEFE2D
:0301D30001FF39F0
:0301D40001FFAB7D
:0301D50001FFE641
:0301D60000000E18
:0301D700000053D2
:0301D80000009C88
:0301D9000000A57E
:0301DA0000004CD6
:0301DB0001FFE53C
:0301DC0001FFD947
:0301DD00000028F7
:0301DE0000008D91
:0301DF000000C855
:0301E0000000B864
:0301E1000000918A
:0301E20000008298
:0301E30000008F8A
:0301E40000009B7D
:0301E50000008691
:0301E600000053C3
:0301E70000001500
:0301E80001FFCC48
:0301E90001FF8C87
:0301EA0001FF66AC
:0301EB0001FF35DC
:0301EC0001FF47C9
:0301ED0001FFBD52
:0301EE00000026E8
:0301EF0001FFDE2F
:0301F00001FF38D4
:0301F10001FF24E7
:0301F20001FF5FAB
:0301F30001FF62A7
:0301F40001FF4DBB
:0301F50001FF2FD8
:0301F60001FF22E4
:0301F70001FF12F3
:0301F80001FF09FB
:0301F90001FF659E
:0301FA0001FF986A
:0301FB0001FF748D
:0301FC0001FF1CE4
:0301FD0001FE9F61
:0301FE0001FE2DD2
:0301FF0001FE3FBF
:0302000001FE807C
:0302010001FE6A91
:0302020001FE26D4
:0302030001FDEA10
:0302040001FDBD3C
:0302050001FDB93F
:0302060001FE16E0
:0302070001FE965F
:0302080001FED91B
:0302090001FF34BE
:03020A0001FF5A97
:03020B0001FEDB16
:03020C0001FE5D93
:03020D0001FE6887
:03020E0001FEC12D
:03020F0001FF11DB
:0302100001FF49A2
:0302110001FF5199
:0302120001FF6089
:0302130001FFA543
:0302140001FFA740
:0302150001FF36B0
:0302160001FEEDF9
:0302170001FF41A3
:0302180001FFF9EA
:030219000000A53D
:03021A000000944D
:03021B0000000BD5
:03021C0001FFDB04
:03021D0000000DD1
:03021E00000030AD
:03021F00000023B9
:0302200000001EBD
:0302210000005288
:0302220000006970
:03022300000032A6
:03022400000007D0
:0302250001FFF0E6
:0302260001FFB421
:0302270001FF7D57
:0302280001FF9043
:0302290001FFB220
:03022A0001FFCE03
:03022B0001FFC709
:03022C0001FF953A
:03022D0001FF8A44
:03022E0001FFB815
:03022F00000001CB
:0302300000004586
:03023100000028A2
:0302320001FFE6E3
:0302330001FFD6F2
:03023400000017B0
:0302350000007E48
:0302360000004E77
:0302370001FFC9FB
:0302380001FF873C
:0302390001FFB60C
:03023A0000003F82
:03023B0000008C34
:03023C0000005E61
:03023D0001FFEBD3
:03023E0001FF7548
:03023F0001FF3884
:0302400001FF5368
:0302410001FFA515
:0302420001FFD8E1
:0302430001FF8B2D
:0302440001FEDADE
:0302450001FE9A1D
:0302460001FEF2C4
:0302470001FF7044
:0302480001FFAC07
:0302490001FFB6FC
:03024A0001FFAB06
:03024B0001FFC4EC
:03024C000000248B
:03024D000000A10D
:03024E000000B9F4
:03024F000000A507
:030250000000B7F4
:030251000000F0BA
:0302520000012880
:030253000000C2E6
:0302540000001D8A
:0302550001FFE0C6
:0302560001FFEDB8
:0302570000002282
:0302580000004A59
:0302590000002082
:03025A0001FFE9B8
:03025B0001FFEFB1
:03025C0001FFE2BD
:03025D0001FFD6C8
:03025E0001FFCDD0
:03025F0001FFF7A5
:0302600000001A81
:0302610000002476
:0302620000001C7D
:0302630001FFA4F4
:0302640001FF4552
:0302650001FF494D
:0302660001FF771E
:0302670001FFBED6
:0302680001FFE8AB
:0302690001FFDFB3
:03026A0001FF9FF2
:03026B0001FF434D
:03026C0001FEEAA6
:03026D0001FEE3AC
:03026E0001FF701D
:03026F0000004844
:030270000000ADDE
:0302710000005436
:0302720000000A7F
:0302730000000A7E
:0302740000002D5A
:030275000000B8CE
:0302760000015232
:0302770000015C27
:030278000000D5AE
:030279000000542E
:03027A000000245D
:03027B0001FFDBA5
:03027C0001FFD6A9
:03027D0000000678
:03027E0001FFB4C9
:03027F0001FF3745
:0302800001FEFD7F
:0302810001FF4E2C
:0302820000002059
:030283000000F484
:0302840000016115
:030285000000E88E
:0302860001FFC5B0
:0302870001FECDA8
:0302880001FEC1B3
:0302890001FF89E9
:03028A000000571A
:03028B00000090E0
:03028C0001FFFF70
:03028D0001FF76F8
:03028E0001FFCBA2
:03028F000000B9B3
:030290000001A6C4
:0302910000020860
:030292000001A9BF
:030293000000F375
:030294000000B6B1
:03029500000098CE
:0302960000004520
:0302970000002B39
:03029800000087DC
:0302990000010958
:03029A0000011E42
:03029B000000C59B
:03029C0000004E11
:03029D0001FFDC82
:03029E0001FF9FBE
:03029F0001FFD488
:0302A00000004D0E
:0302A100000089D1
:0302A200000073E6
:0302A30000001246
:0302A40001FFB2A5
:0302A50001FFEE68
:0302A600000098BD
:0302A7000000AFA5
:0302A80001FFE96A
:0302A90001FF3A18
:0302AA0001FF440D
:0302AB0001FF7ED2
:0302AC0001FF50FF
:0302AD0001FF410D
:0302AE0001FFADA0
:0302AF0001FFF458
:0302B00001FFC685
:0302B10001FF60EA
:0302B20001FF3811
:0302B30001FF9CAC
:0302B40000003C0B
:0302B5000000D96D
:0302B60000012420
:0302B7000000EB59
:0302B80000009EA5
:0302B900000064DE
:0302BA0000007BC6
:0302BB000001023D
:0302BC00000166D8
:0302BD0000014FEE
:0302BE0000013903
:0302BF000000DF5D
:0302C00001FFF546
:0302C10001FF0733
:0302C20001FEC872
:0302C30001FF1424
:0302C40001FF47F0
:0302C50001FF5BDB
:0302C60001FF3AFB
:0302C70001FEB580
:0302C80001FE290B
:0302C90001FDD55F
:0302CA0001FDCF64
:0302CB0001FE2F02
:0302CC0001FED858
:0302CD0001FF4BE3
:0302CE0001FF77B6
:0302CF0001FF919B
:0302D00001FFE447
:0302D10000002CFE
:0302D20000002DFC
:0302D300000044E4
:0302D40001FFE146
:0302D50001FF45E1
:0302D60001FF160F
:0302D70001FF5ACA
:0302D80001FF9192
:0302D90001FFA082
:0302DA000000051C
:0302DB000000958B
:0302DC000000B46B
:0302DD00000044DA
:0302DE0001FFEB32
:0302DF0001FFCF4D
:0302E00001FF7F9C
:0302E10001FF2BEF
:0302E20001FF4ECB
:0302E30001FFB563
:0302E400000026F1
:0302E50000005ABC
:0302E60001FFF81D
:0302E70001FFA96B
:0302E80001FFED26
:0302E9000000A36F
:0302EA0000015EB2
:0302EB00000162AD
:0302EC000000B45B
:0302ED00000018F6
:0302EE0001FFA964
:0302EF0001FFB15B
:0302F000000032D9
:0302F1000000CA40
:0302F20000013DCB
:0302F30000012FD8
:0302F400000145C1
:0302F50000017F86
:0302F60000017391
:0302F700000128DB
:0302F8000000B251
:0302F9000000689A
:0302FA0000006B96
:0302FB000000DC24
:0302FC00000121DD
:0302FD000000C737
:0302FE00000012EB
:0302FF0001FF827A
:0303000001FF8C6E
:0303010000001CDD
:030302000000D721
:0303030000017680
:030304000001767F
:0303050000010BE9
:030306000000B143
:030307000000559E
:0303080001FFCE24
:0303090001FF6C85
:03030A0001FFB63A
:03030B0001FFFAF5
:03030C0001FF8E60
:03030D0001FEF4FA
:03030E0001FEE508
:03030F0001FF4C9F
:0303100001FFCE1C
:0303110000002FBA
:03031200000048A0
:0303130000000BDC
:0303140001FF7A6C
:0303150001FF28BD
:0303160001FFA242
:03031700000034AF
:0303180000004E94
:03031900000038A9
:03031A0000001AC6
:03031B0000004C93
:03031C00000114C9
:03031D000001B02C
:03031E000001CE0D
:03031F0000019A40
:0303200000018356
:0303210000016870
:0303220000012CAB
:030323000000AB2C
:03032400000006D0
:0303250001FFCD08
:0303260001FFE6EE
:0303270000007360
:030328000000D3FF
:030329000000755C
:03032A0001FFDFF1
:03032B0001FFD8F7
:03032C000000636B
:03032D000000913C
:03032E0001FFF9D3
:03032F0001FF6863
:0303300001FF9E2C
:0303310000004287
:030332000000C503
:0303330000011EA8
:0303340000015075
:0303350000015B69
:030336000001388B
:0303370000015A68
:030338000002457B
:030339000002D9E6
:03033A000002A816
:03033B000002407D
:03033C000001C5F8
:03033D000001A517
:03033E000001CBF0
:03033F0000021C9D
:0303400000025365
:03034100000214A3
:0303420000017C3B
:03034300000104B2
:0303440000008B2B
:0303450000004A6B
:030346000000991B
:03034700000106AC
:0303480000017839
:0303490000024966
:03034A000002E5C9
:03034B000002B6F7
:03034C0000025557
:03034D0000020D9E
:03034E0000015E4D
:03034F0000006447
:0303500000005555
:0303510000015B4D
:0303520000021294
:0303530000015B4B
:0303540001FFC2E4
:0303550001FE6D39
:0303560001FE02A3
:0303570001FE7133
:0303580001FEF3B0
:0303590001FEE2C0
:03035A0001FEA9F8
:03035B0001FED0D0
:03035C0001FF4D51
:03035D0000002A73
:03035E000000A0FC
:03035F0000006F2C
:0303600000003367
:0303610001FFFD9C
:0303620001FFAAEE
:0303630001FF98FF
:0303640001FF9EF8
:0303650001FF6A2B
:0303660001FF662E
:0303670001FF771C
:0303680001FF563C
:0303690001FF1A77
:03036A0001FED0C1
:03036B0001FEABE5
:03036C0001FF1C72
:03036D0001FFE6A7
:03036E0000009CF0
:03036F000000DCAF
:0303700000004D3D
:0303710001FF7811
:0303720001FF3058
:0303730001FF9DEA
:0303740000003E48
:0303750000007312
:030376000000176D
:0303770001FF661D
:0303780001FF255D
:0303790001FF6A17
:03037A0001FF5927
:03037B0001FEFF81
:03037C0001FEEA95
:03037D0001FEB2CC
:03037E0001FE4B32
:03037F0001FDCAB3
:0303800001FD6319
:0303810001FD3B40
:0303820001FD2654
:0303830001FCE09A
:0303840001FC81F8
:0303850001FC7404
:0303860001FC7403
:0303870001FC670F
:0303880001FC6114
:0303890001FC6D07
:03038A0001FC541F
:03038B0001FC353D
:03038C0001FC78F9
:03038D0001FCBAB6
:03038E0001FC8AE5
:03038F0001FC1C52
:0303900001FC1E4F
:0303910001FCA6C6
:0303920001FD0D5D
:0303930001FD2E3B
:0303940001FCD396
:0303950001FBF772
:0303960001FB2444
:0303970001FB5215
:0303980001FC67FE
:0303990001FD8AD9
:03039A0001FDE67C
:03039B0001FD75EC
:03039C0001FCD988
:03039D0001FCDF81
:03039E0001FDF06E
:03039F0001FF3922
:0303A00001FFB5A5
:0303A10001FF4613
:0303A20001FECB8E
:0303A30001FEF266
:0303A40001FFA1B5
:0303A500000057FE
:0303A600000097BD
:0303A70000004310
:0303A80000000052
:0303A9000000470A
:0303AA000001341B
:0303AB0000024EFF
:0303AC000002ABA1
:0303AD000002B09B
:0303AE00000262E8
:0303AF000001B892
:0303B00000017ACF
:0303B1000001EB5D
:0303B2000002BC8A
:0303B3000002C97C
:0303B40000020A3A
:0303B5000001390B
:0303B6000000A3A1
:0303B70000009DA6
:0303B80000014100
:0303B90000023906
:0303BA00000257E7
:0303BB000001A09E
:0303BC000000E25C
:0303BD0000008FAE
:0303BE000000D963
:0303BF0000013DFD
:0303C000000142F7
:0303C100000166D2
:0303C2000001C572
:0303C300000185B1
:0303C400000093A3
:0303C50001FF6ACB
:0303C60001FEC273
:0303C70001FF1122
:0303C80001FFF33F
:0303C900000085AC
:0303CA0001FFE947
:0303CB0001FEAE82
:0303CC0001FE1A15
:0303CD0001FE0B23
:0303CE0001FE73BA
:0303CF0001FE41EB
:0303D00001FD8AA2
:0303D10001FD45E6
:0303D20001FD68C2
:0303D30001FDE841
:0303D40001FE68BF
:0303D50001FE83A3
:0303D60001FE35F0
:0303D70001FDC75E
:0303D80001FDAC78
:0303D90001FE5DC5
:0303DA0001FF918F
:0303DB00000077A8
:0303DC000000BA64
:0303DD00000076A7
:0303DE0000006DAF
:0303DF0000009C7F
:0303E00000008991
:0303E100000076A3
:0303E2000000BB5D
:0303E30000007C9B
:0303E40001FFD83E
:0303E500000023F2
:0303E6000000F81C
:0303E700000172A0
:0303E8000001779A
:0303E90000019080
:0303EA0000017C93
:0303EB0000015DB1
:0303EC0000012CE1
:0303ED0000007994
:0303EE00000012FA
:0303EF0000007C8F
:0303F0000000D634
:0303F1000000B158
:0303F2000000A266
:0303F3000000D82F
:0303F40000011AEB
:0303F500000056AF
:0303F60001FF59AB
:0303F70001FF42C1
:0303F800000028DA
:0303F900000118E8
:0303FA000000F709
:0303FB000000D12E
:0303FC0000012CD1
:0303FD000001AE4E
:0303FE0000024EAC
:0303FF00000250A9
:00000001ff
