:020000040000FA
:0300000001FF6697
:0300010000006894
:03000200000135C5
:030003000001C237
:03000400000210E7
:03000500000221D5
:030006000001EA0C
:0300070000021ED6
:0300080000038E64
:030009000004747C
:03000A00000428C7
:03000B000003846B
:03000C000002C42B
:03000D000002915D
:03000E000002CD20
:03000F00000349A2
:0300100000039F4B
:0300110000033CAD
:0300120000024F9A
:0300130000019455
:030014000000D811
:0300150000007474
:030016000000EEF9
:030017000001964F
:030018000002469D
:0300190000038A57
:03001A0000047A65
:03001B00000431AD
:03001C0000039A44
:03001D0000032BB2
:03001E0000021BC2
:03001F0000009A44
:030020000000835A
:03002100000216C4
:0300220000032EAA
:03002300000216C2
:0300240001FFA039
:0300250001FD9644
:0300260001FCF2E8
:0300270001FD9D3B
:0300280001FE6472
:0300290001FE4B8A
:03002A0001FDF4E1
:03002B0001FE30A3
:03002C0001FEEFE3
:03002D0000004090
:03002E000000F4DB
:03002F000000A925
:0300300000004E7F
:0300310001FFFCD0
:0300320001FF7D4E
:0300330001FF6268
:0300340001FF6C5D
:0300350001FF1CAC
:0300360001FF16B1
:0300370001FF3096
:0300380001FEFEC8
:0300390001FEA421
:03003A0001FE358F
:03003B0001FDFCC8
:03003C0001FEA71B
:03003D0001FFD9E7
:03003E000000ECD3
:03003F0000014B72
:0300400000007548
:0300410001FF3389
:0300420001FEC7F5
:0300430001FF6C4E
:0300440000005D5C
:030045000000AD0B
:0300460000002394
:0300470001FF199D
:0300480001FEB9FD
:0300490001FF2094
:03004A0001FF07AC
:03004B0001FE7F34
:03004C0001FE6052
:03004D0001FE0DA4
:03004E0001FD753C
:03004F0001FCB6FB
:0300500001FC1D93
:0300510001FBE1CF
:0300520001FBC3EC
:0300530001FB5C52
:0300540001FAD0DE
:0300550001FABDF0
:0300560001FABEEE
:0300570001FAACFF
:0300580001FAA406
:0300590001FAB8F1
:03005A0001FA9315
:03005B0001FA6641
:03005C0001FACBDB
:03005D0001FB2D77
:03005E0001FAE6BE
:03005F0001FA465D
:0300600001FA4A58
:0300610001FB138D
:0300620001FBABF4
:0300630001FBDCC2
:0300640001FB5746
:0300650001FA1687
:0300660001F8E1BD
:0300670001F92775
:0300680001FABCDE
:0300690001FC6730
:03006A0001FCEDA9
:03006B0001FC494C
:03006C0001FB672E
:03006D0001FB6F25
:03006E0001FCFE94
:03006F0001FEDFB0
:0300700001FF93FA
:0300710001FEF29B
:0300720001FE3E4E
:0300730001FE7813
:0300740001FF7613
:0300750000007E0A
:030076000000DCAB
:0300770000006125
:0300780000000085
:030079000000671D
:03007A000001BDC5
:03007B000003552A
:03007C000003DAA4
:03007D000003E09D
:03007E0000036F0D
:03007F0000027A02
:030080000002205B
:030081000002C3B7
:030082000003EF89
:0300830000040076
:030084000002ED8A
:030085000001C1B6
:030086000000E98E
:030087000000E195
:030088000001CCA8
:0300890000032E43
:03008A0000035818
:03008B000002531D
:03008C000001432D
:03008D000000CCA4
:03008E0000013539
:03008F000001C4A9
:030090000001CAA2
:030091000001FE6D
:03009200000284E5
:030093000002293F
:030094000000D099
:0300950001FF2B3D
:0300960001FE3D2B
:0300970001FEADBA
:0300980001FFED78
:030099000000BCA8
:03009A0001FFE083
:03009B0001FE2340
:03009C0001FD5211
:03009D0001FD3E24
:03009E0001FDD091
:03009F0001FD8BD5
:0300A00001FC88D8
:0300A10001FC2936
:0300A20001FC5B03
:0300A30001FD0F4D
:0300A40001FDC398
:0300A50001FDE971
:0300A60001FD7CDD
:0300A70001FCE277
:0300A80001FCBD9B
:0300A90001FDB5A1
:0300AA0001FF65EE
:0300AB000000A7AB
:0300AC000001044C
:0300AD000000A5AB
:0300AE00000099B6
:0300AF000000DA74
:0300B0000000BF8E
:0300B1000000A5A7
:0300B20000010545
:0300B3000000AD9D
:0300B40001FFC980
:0300B50000003117
:0300B600000158EE
:0300B70000020143
:0300B8000002073C
:0300B90000022919
:0300BA0000020E33
:0300BB000001E35E
:0300BC0000019FA1
:0300BD000000A898
:0300BE0000001A25
:0300BF000000AC92
:0300C00000012715
:0300C1000000F349
:0300C2000000DF5C
:0300C30000012910
:0300C400000183B5
:0300C500000077C1
:0300C60001FF1B1C
:0300C70001FEFB3C
:00000001ff
