:020000040000FA
:0300000001FC32CE
:0300010001FA02FF
:0300020001FA48B8
:0300030001F9669A
:0300040001FBA15C
:03000500000043B5
:0300060000000FE8
:030007000000985E
:030008000002B043
:030009000004F3FD
:03000A000003B63A
:03000B0001FFEF03
:03000C0001FFA948
:03000D000003707D
:03000E00000530BA
:03000F000002E00C
:03001000000207E4
:0300110000037079
:03001200000439AE
:0300130000057C69
:0300140000034C9A
:0300150001FDAE3C
:0300160001FDAC3D
:0300170001FE1BCC
:0300180001FE6F77
:0300190001FE20C5
:03001A0001FF479C
:03001B000000BC26
:03001C0001FDDD06
:03001D0001FCF1F2
:03001E0001FD736E
:03001F0001FC25BC
:0300200001FA5290
:0300210001F8B72C
:0300220001FC934B
:0300230000000FCB
:0300240001FF13C6
:0300250000006276
:030026000001A333
:030027000001874E
:0300280000006075
:0300290000004E86
:03002A000000D201
:03002B0001FFF7DB
:03002C00000123AD
:03002D000003428B
:03002E000001FCD2
:03002F0001FF824C
:0300300001FB973A
:0300310001F9D200
:0300320001F97958
:0300330001FB9539
:030034000000B019
:0300350001FFB90F
:0300360001FC4A80
:0300370001FC3E8B
:0300380001FE2C9A
:0300390001FED3F2
:03003A0001FCEBDB
:03003B0001FD8242
:03003C000001BE02
:03003D000002A618
:03003E000001D5E9
:03003F0000028D2F
:030040000001A21A
:0300410001FED5E8
:0300420001FF1E9D
:0300430001FF3684
:0300440000012B8D
:0300450000015B5C
:030046000000A017
:030047000004BDF5
:0300480000041899
:030049000002189A
:03004A000000E9CA
:03004B0001FAC6F1
:03004C0001F8F9BF
:03004D0001FCAA09
:03004E0001FCE0D2
:03004F0001FF8727
:0300500000009518
:030051000000812B
:030052000000D5D6
:030053000000BCEE
:0300540000019315
:0300550000025353
:0300560000022B7A
:0300570001FE5A4D
:0300580001FB8029
:0300590001FD2F77
:03005A000000099A
:03005B0000029B05
:03005C000005A2FA
:03005D000002F7A7
:03005E0000009708
:03005F000000F4AA
:0300600000027F1C
:0300610000031F7A
:030062000002C3D6
:030063000001B1E8
:0300640000002574
:0300650001FE3E5B
:0300660001FB3F5C
:0300670001FC2079
:030068000001E1B3
:030069000005523D
:03006A0000015939
:03006B0001FD2D67
:03006C000000CDC4
:03006D0000065139
:03006E00000A8FF6
:03006F00000C3250
:030070000003DDAD
:0300710001FF523A
:0300720000010B7F
:0300730000048EF8
:0300740000056420
:0300750000051073
:030076000005ADD5
:030077000002572D
:0300780000021F64
:0300790000046917
:03007A000005FF7F
:03007B0000047A04
:03007C000002E09F
:03007D000000C8B8
:03007E0000015628
:03007F000002413B
:030080000001007C
:030081000001F08B
:0300820000001467
:0300830001FC0974
:0300840001F9A6D9
:0300850001FC99E2
:030086000000D5A2
:0300870000021262
:0300880000033D35
:0300890001FFFD77
:03008A0001FB3641
:03008B0001FBEC8A
:03008C0000005B16
:03008D00000180EF
:03008E0001FECFA1
:03008F0001FD254B
:0300900001FD5C13
:0300910001FC93DC
:0300920001FE313B
:0300930001FE7AF1
:0300940001FB5914
:0300950001FBF676
:0300960001FC6CFE
:0300970001FC84E5
:0300980001FCE97F
:0300990001FC2542
:03009A0001F9FD6C
:03009B0001F9A6C2
:03009C0001FBB3B2
:03009D0001FB4D17
:03009E0001FBF66D
:03009F0001FC223F
:0300A00001F95A09
:0300A10001F787DD
:0300A20001F7FF64
:0300A30001FAA2BD
:0300A40001FFC198
:0300A50000010C4B
:0300A60001FB5DFE
:0300A70001F7A1BD
:0300A80001F86DEF
:0300A90001F9A4B6
:0300AA0001F99EBB
:0300AB0001FB0353
:0300AC0001FFB49D
:0300AD0001FFA5AB
:0300AE0001FC074B
:0300AF0001FB92C0
:0300B00001FCE36D
:0300B10001FD2925
:0300B20001FD0449
:0300B30001FD1C30
:0300B40001FE1634
:0300B50001FFE167
:0300B600000365DF
:0300B7000004073B
:0300B8000001BD87
:0300B90000014DF6
:0300BA00000165DD
:0300BB0000021F21
:0300BC000001FE42
:0300BD0000022717
:0300BE00000287B6
:0300BF000004DB5F
:0300C000000568D0
:0300C1000003BC7D
:0300C20000017FBB
:0300C30001FEE15A
:0300C40001FFE059
:00000001ff
