:020000040000FA
:03000000000037C6
:03000100000007F5
:03000200000006F5
:0300030000001DDD
:0300040000007782
:030005000000DC1C
:030006000000E215
:0300070000008A6C
:03000800000036BF
:03000900000017DD
:03000A0001FFE80B
:03000B0001FFE50D
:03000C00000004ED
:03000D0001FFCF21
:03000E0001FF7E71
:03000F0001FF5896
:0300100001FF8C61
:03001100000015D7
:0300120000009F4C
:030013000000E604
:0300140000009752
:0300150001FFDA0E
:0300160001FF38AF
:0300170001FF31B5
:0300180001FFB332
:03001900000038AC
:03001A0000005E85
:03001B0001FFFFE3
:03001C0001FFA73A
:03001D0001FFDE02
:03001E0000007867
:03001F00000112CB
:030020000001528A
:03002100000114C7
:0300220000009E3D
:0300230000007664
:0300240000006277
:0300250000002DAB
:0300260000001CBB
:030027000000587E
:030028000000AC29
:030029000000BA1A
:03002A0000008053
:03002B000000339F
:03002C0001FFE9E8
:03002D0001FFC10F
:03002E0001FFE3EC
:03002F000000329C
:0300300000005974
:0300310000004A82
:0300320000000BC0
:0300330001FFCDFD
:0300340001FFF5D4
:0300350000006365
:0300360000007255
:0300370001FFF1D5
:0300380001FF8045
:0300390001FF863E
:03003A0001FFAB18
:03003B0001FF8E34
:03003C0001FF843D
:03003D0001FFCAF6
:03003E0001FFF9C6
:03003F0001FFDAE4
:0300400001FF9825
:0300410001FF7E3E
:0300420001FFBFFC
:0300430000002793
:0300440000008D2C
:030045000000BEFA
:030046000000981F
:00000001ff
