:020000040000FA
:020000001FF7E8
:020001001FE5F9
:020002001FD508
:020003001FC715
:020004001FC219
:020005001FC01A
:020006001FBF1A
:020007001FBB1D
:020008001FB81F
:020009001FC511
:02000A001FE2F3
:02000B000000F3
:02000C000000F2
:02000D001FF0E2
:02000E001FDEF3
:02000F001FCD03
:020010001FBF10
:020011001FBC12
:020012001FCD00
:020013001FEFDD
:02001400000EDC
:02001500001BCE
:020016000019CF
:020017000018CF
:02001800001CCA
:02001900001EC7
:02001A000025BF
:02001B00002AB9
:02001C00001DC5
:02001D000001E0
:02001E001FE5DC
:02001F001FD7E9
:020020001FE4DB
:020021001FF7C7
:020022001FFFBE
:020023000005D6
:020024000007D3
:020025000000D9
:020026001FFEBB
:020027001FFDBB
:020028001FF8BF
:020029001FFABC
:02002A000001D3
:02002B000006CD
:02002C001FFDB6
:02002D001FE7CB
:02002E001FDFD2
:02002F001FF5BB
:020030000011BD
:020031000018B5
:02003200000CC0
:020033000004C7
:020034001FFAB1
:020035001FECBE
:020036001FE6C3
:020037001FECBC
:020038001FF7B0
:020039000003C2
:02003A000012B2
:02003B000019AA
:02003C000014AE
:02003D00000CB5
:02003E000004BC
:02003F001FFBA5
:020040001FF5AA
:020041001FF6A8
:020042001FF0AD
:020043001FDAC2
:020044001FCBD0
:020045001FD4C6
:020046001FEEAB
:020047000005B2
:020048000004B2
:020049001FF1A5
:02004A001FEDA8
:02004B000000B3
:02004C00000EA4
:02004D000005AC
:02004E001FE2AF
:02004F001FC2CE
:020050001FB3DC
:020051001FAFDF
:020052001FBFCE
:020053001FDEAE
:020054001FF794
:020055001FFE8C
:020056000000A8
:020057000000A7
:020058001FF691
:020059001FE99D
:02005A001FE0A5
:02005B001FD9AB
:02005C001FE79C
:02005D001FF38F
:02005E001FF78A
:02005F001FFC84
:0200600000128C
:0200610000316C
:02006200003468
:02006300001388
:020064001FEE8D
:020065001FEB8F
:02006600000791
:02006700001C7B
:02006800001383
:0200690000088D
:02006A00001084
:02006B00001281
:02006C001FFC77
:02006D001FE092
:02006E001FD998
:02006F001FE888
:020070001FF57A
:020071001FF579
:020072001FF974
:020073001FF973
:020074001FF477
:020075001FF07A
:020076001FF277
:020077001FF474
:02007800000086
:02007900000C79
:02007A001FFC69
:02007B001FD88C
:02007C001FB8AB
:02007D001FA4BE
:02007E001FA4BD
:02007F001FB6AA
:020080001FBDA2
:020081001FB6A8
:020082001FB2AB
:020083001FBF9D
:020084001FD784
:020085001FF763
:02008600000870
:02008700000770
:020088001FFA5D
:020089001FE76F
:02008A001FD580
:02008B001FC58F
:02008C001FCF84
:02008D001FEE64
:02008E00000F61
:02008F00001D52
:02009000001C52
:0200910000214C
:02009200002943
:02009300003239
:02009400002D3D
:02009500002A3F
:02009600002147
:02009700000F58
:020098001FF84F
:020099001FF353
:02009A0000065E
:02009B00000C57
:02009C001FF54E
:02009D001FDD65
:02009E001FE859
:02009F00000C53
:0200A000002F2F
:0200A10000401D
:0200A200003725
:0200A300001942
:0200A4001FF14A
:0200A5001FDC5E
:0200A6001FE158
:0200A7001FF246
:0200A800000452
:0200A900001B3A
:0200AA00002B29
:0200AB0000262D
:0200AC0000143E
:0200AD0000024F
:0200AE001FFF32
:0200AF00000649
:0200B000000F3F
:0200B100000A43
:0200B200000547
:0200B300000645
:0200B400000A40
:0200B500001138
:0200B600001434
:0200B70000093E
:0200B800000046
:0200B900000540
:0200BA00001034
:0200BB0000172C
:0200BC0000152D
:0200BD00001130
:0200BE00000937
:0200BF001FF32D
:0200C0001FE936
:0200C1001FF628
:0200C200000438
:0200C300000239
:0200C4001FF02B
:0200C5001FDC3E
:0200C6001FC455
:0200C7001FB167
:00000001ff
