:020000040000FA
:0300000001FF4FAE
:0300010001FE8479
:0300020001FDEC11
:0300030001FFEA10
:0300040000008277
:0300050000003ABE
:0300060000019264
:0300070000019461
:0300080001FEE115
:0300090001FC11E6
:03000A0001FAB642
:03000B0001FAD324
:03000C0001FD20D3
:03000D0001FF658B
:03000E0001FF06E9
:03000F0001FF5599
:0300100001FF915C
:0300110001FECE1F
:0300120001FF01EA
:0300130001FE6784
:0300140001FDC526
:0300150001FD5C8E
:0300160001FDA148
:0300170001FF875F
:0300180001FFD015
:0300190001FEE7FE
:03001A0001FF42A1
:03001B00000041A1
:03001C00000121BF
:03001D0000006080
:03001E0001FFB52A
:03001F0001FF01DD
:0300200001FD7669
:0300210001FDB22C
:0300220001FF8B50
:0300230000024197
:030024000003E4F2
:0300250000027A5C
:0300260001FFA532
:0300270001FDBB1D
:0300280001FE1ABC
:0300290001FF983C
:03002A0001FF498A
:03002B0001FF0FC3
:03002C000000F0E1
:03002D000000C20E
:03002E000002329B
:03002F000004309A
:030030000002E9E2
:0300310000015E6D
:0300320000005D6E
:03003300000117B2
:030034000000D7F2
:03003500000025A3
:0300360000027C49
:03003700000508B9
:0300380000054F71
:030039000004A31D
:03003A0000043E81
:03003B0000037649
:03003C0000022A95
:03003D0000023886
:03003E000003C2FA
:03003F0000046D4D
:0300400000037347
:030041000001A813
:030042000000E2D9
:030043000000AA10
:0300440000004376
:030045000001B304
:030046000003F7BD
:00000001ff
