:020000040000FA
:0300000001FEFA04
:0300010001FD3DC1
:0300020001FBCD32
:0300030001FB2DD1
:0300040001FBEC11
:0300050001FD43B7
:0300060001FE599F
:0300070001FEA84F
:0300080001FE1DD9
:0300090001FCC92E
:03000A0001FCA74F
:03000B0001FDA84C
:03000C0001FD7182
:03000D0001FD5999
:03000E0001FD856C
:03000F0001FD965A
:0300100001FDCB24
:0300110001FD6C82
:0300120001FD39B4
:0300130001FDF7F5
:0300140001FE5991
:0300150001FE00E9
:0300160001FDA940
:0300170001FE5196
:0300180001FEB630
:0300190001FE4F96
:03001A0001FE5292
:03001B0001FD984C
:03001C0001FCAC38
:03001D0001FCBE25
:03001E0001FC5C86
:03001F0001FC6C75
:0300200001FDEDF2
:0300210001FD13CB
:0300220001FAF1EF
:0300230001F95987
:0300240001F8F7E9
:0300250001FBB725
:0300260001FEA137
:03002700000009CD
:0300280001FFE2F3
:0300290001FECD08
:03002A0001FDFDD8
:03002B0001FDE7ED
:03002C0001FEB61C
:03002D0001FFF7D9
:03002E000000D4FB
:03002F000000B915
:0300300001FFE5E8
:0300310001FF3597
:0300320001FFE1EA
:030033000000FCCE
:030034000000A524
:0300350001FF992F
:0300360000001FA8
:0300370001FFEED8
:0300380001FEB313
:0300390001FEDEE7
:03003A0001FF9033
:03003B0001FF467C
:03003C0001FE6F53
:03003D0001FEA51C
:03003E0001FF8936
:03003F0001FF2C92
:0300400001FDE4DB
:0300410001FD922C
:0300420001FD3A83
:0300430001FC0BB2
:0300440001FBA815
:0300450001FC10AB
:0300460001FCEFCB
:0300470001FDF1C7
:0300480001FD9126
:0300490001FD7F37
:03004A0001FF476C
:03004B0000015E53
:03004C000002327D
:03004D000002426C
:03004E0000012589
:03004F0001FF8925
:0300500001FF0F9E
:0300510001FF6448
:0300520001FFE3C8
:0300530001FFCAE0
:0300540001FF06A3
:0300550001FD4F5B
:0300560001FCBBEF
:0300570001FDD7D1
:0300580001FF1D88
:0300590001FFE2C2
:03005A0001FF2281
:03005B0001FD7133
:03005C0001FC5153
:03005D0001FB891B
:03005E0001FB564D
:03005F0001FBCAD8
:0300600001FCA1FF
:0300610001FCD3CC
:0300620001FE4755
:0300630000000D8D
:030064000000C6D3
:0300650000020690
:0300660000024D48
:030067000000F6A0
:0300680001FF5F36
:0300690001FFC3D1
:03006A000002375A
:03006B000004345A
:03006C0000043459
:03006D0000032C61
:03006E0000011C72
:03006F0001FF4747
:0300700001FF6726
:030071000000AAE2
:0300720000024841
:030073000002E3A5
:030074000003572F
:0300750000038005
:030076000002681D
:0300770000021272
:0300780000036121
:0300790000061569
:03007A0000072E4E
:03007B0000061963
:03007C000003AFCF
:03007D000002324C
:03007E0000030A72
:03007F000002D2AA
:030080000002ADCE
:030081000003E099
:0300820000047FF8
:0300830000031E59
:030084000000BDBC
:0300850001FE7EFB
:0300860001FD7207
:0300870001FDD6A2
:0300880001FED2A4
:0300890000001F55
:03008A000001373B
:03008B000001AAC7
:03008C000002224D
:03008D000003BEAF
:03008E0000041C4F
:03008F000002DB91
:030090000001E983
:030091000001DE8D
:030092000002F277
:0300930000043432
:030094000003DA8C
:0300950000024224
:030096000000F86F
:030097000000C99D
:0300980000012143
:030099000000D58F
:03009A0000002F34
:03009B0001FFA5BD
:03009C0001FF64FD
:03009D0001FE86DB
:03009E0001FE2C34
:03009F0001FEDD82
:0300A00001FF6CF1
:0300A10001FF7CE0
:0300A20001FECB91
:0300A30001FD5903
:0300A40001FCF567
:0300A50001FF292F
:0300A600000173E3
:0300A7000002054F
:0300A80000011242
:0300A90001FE63F2
:0300AA0001FBEC6B
:0300AB0001FCE76E
:0300AC0001FE381A
:0300AD0001FEB998
:0300AE0001FFD976
:0300AF0001FF5DF1
:0300B00001FE232B
:0300B10001FDD27C
:0300B20001FCD777
:0300B30001FC71DC
:0300B40001FD3E0D
:0300B50001FDCA80
:0300B60001FE8BBD
:0300B70001FE87C0
:0300B80001FEF94D
:0300B90000007FC5
:0300BA0000015AE8
:0300BB0000013D04
:0300BC00000143FD
:0300BD0000015AE5
:0300BE0000012E10
:0300BF00000154E9
:0300C00000010C30
:0300C1000001FA41
:0300C200000446F1
:0300C3000004F244
:0300C40000045ED7
:0300C5000002ED49
:0300C6000001290D
:0300C700000169CC
:0300C8000002A291
:0300C90000034BE6
:0300CA000004B976
:0300CB0000052B02
:0300CC0000028EA1
:0300CD000000052B
:0300CE0001FF30FF
:0300CF0001FF71BD
:0300D000000039F4
:0300D1000000DB51
:0300D200000164C6
:0300D300000089A1
:0300D40001FFC861
:0300D500000047E1
:0300D6000000D156
:0300D700000128FD
:0300D80000000D18
:0300D90001FE9E87
:0300DA0001FE7FA5
:0300DB0001FEC75C
:0300DC0001FF5DC4
:0300DD0001FFD14F
:0300DE0001FFBA65
:0300DF0001FFE33B
:0300E0000000C25B
:0300E100000221F9
:0300E2000002B861
:0300E3000000E931
:0300E40001FFF029
:0300E500000129EE
:0300E600000165B1
:0300E70001FFD046
:0300E80001FF67AE
:0300E90000022BE7
:0300EA0000045AB5
:0300EB0000050FFE
:0300EC000003E727
:0300ED000000C749
:0300EE0001FF16F9
:0300EF0001FEFA15
:0300F00001FEFD11
:0300F10000002BE1
:0300F2000001D535
:0300F3000002F315
:0300F4000002F512
:0300F5000001BE49
:0300F6000000F314
:0300F70000000204
:0300F800000027DE
:0300F90001FFFA0A
:0300FA0001FF1AE9
:0300FB0001FF4CB6
:0300FC0001FF16EB
:0300FD0001FEE41D
:0300FE0001FFBD42
:0300FF000000AC52
:030100000000D12B
:03010100000010EB
:0301020001FF6A90
:0301030001FF17E2
:03010400000031C7
:0301050000010CEA
:0301060001FE8E69
:0301070001FCB345
:0301080001FDB640
:0301090001FFDC17
:03010A000001569B
:03010B000000C22F
:03010C0001FF737D
:03010D0001FEA54B
:03010E0001FDBB35
:03010F0001FC8070
:0301100001FC846B
:0301110001FD34B9
:0301120001FDDD0F
:0301130001FE5793
:0301140001FE1DCC
:0301150001FDF5F4
:0301160001FDEEFA
:0301170001FE5492
:0301180001FE29BC
:0301190001FCC620
:03011A0001FC5C89
:03011B0001FD16CD
:03011C0001FDEAF8
:03011D0001FE3FA1
:03011E0001FE33AC
:03011F0001FE13CB
:0301200001FE1CC1
:0301210001FD4994
:0301220001FBA43A
:0301230001FC05D7
:0301240001FCA437
:0301250001FB9249
:0301260001FB0AD0
:0301270001FBEDEC
:0301280001FD577F
:0301290001FE8D47
:03012A0001FF2EA4
:03012B0001FE6072
:03012C0001FDB022
:03012D0001FE3B95
:03012E0001FDAD23
:03012F0001FD0CC3
:0301300001FCB718
:0301310001FCEDE1
:0301320001FD9438
:0301330001FEB713
:0301340000006365
:030135000000B90E
:0301360001FFECDA
:0301370001FECEF8
:0301380001FEDEE7
:0301390001FF06BD
:03013A0001FF279B
:03013B0000002E93
:03013C000000B907
:03013D000000D9E6
:03013E000001A11C
:03013F0000009528
:0301400000000FAD
:030141000000AE0D
:0301420001FF2991
:0301430000005A5F
:0301440000023C7A
:0301450000016452
:0301460000011F96
:030147000001B6FE
:030148000000FFB5
:0301490001FFB003
:03014A0001FFF9B9
:03014B0000012888
:03014C000003139A
:03014D0000052585
:03014E000005FAAF
:03014F000004EABF
:0301500000025159
:0301510000002A81
:0301520001FFFDAD
:030153000000EBBE
:0301540001FFE1C7
:0301550001FEE8C0
:0301560000011491
:0301570000033B67
:0301580000048E12
:030159000004514E
:03015A000002732D
:03015B000001039D
:03015C0000007A26
:03015D0001FFA8F7
:03015E0001FE7B24
:03015F0001FE5E40
:0301600001FFE6B6
:0301610000018A10
:030162000001F2A7
:0301630000023760
:0301640000026B2B
:030165000001FA9C
:030166000000A5F1
:0301670000003263
:030168000000C7CD
:030169000000E2B1
:03016A0001FFC3CF
:03016B0001FECAC8
:03016C0001FF444C
:03016D000000E5AA
:03016E000002DFAD
:03016F0000034545
:0301700000028DFD
:030171000000FE8D
:0301720001FFE9A1
:030173000000B0D9
:0301740000012C5B
:0301750001FFE6A1
:0301760001FEF196
:0301770001FEB2D4
:0301780001FDFF87
:0301790001FE196B
:03017A0001FF8200
:03017B0000017709
:03017C000001255A
:03017D0001FEF888
:03017E0001FE7A05
:03017F0001FF4F2E
:0301800001FF3349
:0301810001FF4F2C
:0301820001FFFE7C
:0301830001FFAFCA
:030184000000393F
:030185000000ED8A
:0301860000009ED8
:0301870001FFC2B3
:0301880001FEF283
:0301890000000A69
:03018A000002A8C8
:03018B000003C5A9
:03018C0000020F5F
:03018D0001FFBBB4
:03018E0001FFB6B8
:03018F000001422A
:030190000002CAA0
:030191000003E187
:030192000002A3C5
:030193000001E088
:03019400000175F2
:0301950001FF2A3D
:0301960001FE2B3C
:0301970001FE7FE7
:0301980001FF560E
:0301990001FFEA79
:03019A0001FECA99
:03019B0001FE6BF7
:03019C000000AEB2
:03019D0000034B11
:03019E000003C992
:03019F000001F666
:0301A00001FE9CC1
:0301A10001FCA3BB
:0301A20001FBEB73
:0301A30001FC0557
:0301A40001FE1841
:0301A50000002B2C
:0301A60000004115
:0301A70001FEC294
:0301A80001FE1342
:0301A90001FD89CC
:0301AA0001FCC095
:0301AB0001FC71E3
:0301AC0001FC2B28
:0301AD0001FCB89A
:0301AE0001FDAEA2
:0301AF0001FE8BC3
:0301B00001FEC984
:0301B10001FD6BE2
:0301B20001FC1E2F
:0301B30001FBB895
:0301B40001FACF7E
:0301B50001FA0745
:0301B60001FA6FDC
:0301B70001FC4AFE
:0301B80001FE56EF
:0301B90001FF9DA6
:0301BA00000074CE
:0301BB00000049F8
:0301BC0001FF033D
:0301BD0001FEEE52
:0301BE00000167D6
:0301BF0000038EAC
:0301C000000378C1
:0301C1000002EE4B
:0301C2000001EC4D
:0301C30000000C2D
:0301C40001FF42F6
:0301C50001FEFC3C
:0301C60001FFE155
:0301C700000095A0
:0301C80001FF39FB
:0301C90001FD969F
:0301CA0001FD35FF
:0301CB0001FCF440
:0301CC0001FCE350
:0301CD0001FC59D9
:0301CE0001FB3BF7
:0301CF0001FB8DA4
:0301D00001FCB57A
:0301D10001FD2B02
:0301D20001FDDE4E
:0301D30001FFA485
:0301D4000000C95F
:0301D5000001DD49
:0301D60000023EE6
:0301D7000001A183
:0301D800000170B3
:0301D90000013AE8
:0301DA000000FF23
:0301DB0000019A86
:0301DC000003031A
:0301DD0000029687
:0301DE00000174A9
:0301DF000001F12B
:0301E0000001908B
:0301E10000010317
:0301E2000000A278
:0301E30001FFD643
:0301E40001FD56C4
:0301E50001FB1209
:0301E60001FC6BAE
:0301E70001FD71A6
:0301E80001FDED29
:0301E90001FE2DE7
:0301EA0001FDF222
:0301EB0001FCA56F
:0301EC0001FB28EC
:0301ED0001FD33DE
:0301EE0001FFCF3F
:0301EF0001FF51BC
:0301F00001FE739A
:0301F10001FE61AB
:0301F20001FEDD2E
:0301F30001FFFE0B
:0301F400000031D7
:0301F50001FF7E89
:0301F60001FF0303
:0301F70000002CD9
:0301F8000000AD57
:0301F90000014AB8
:0301FA000003748B
:0301FB0000040AF3
:0301FC0000020DF1
:0301FD00000002FD
:0301FE00000045B9
:0301FF000001916B
:030200000002C732
:030201000003AB4C
:030202000002E314
:030203000001D81F
:030204000003A64E
:030205000005A051
:030206000005DB15
:030207000004BC34
:0302080000037080
:0302090000040BE3
:03020A00000409E4
:03020B000003BA33
:03020C00000636B3
:03020D0000091EC7
:03020E000007B333
:03020F00000523C4
:030210000004E700
:030211000003F0F7
:03021200000329BD
:03021300000502E1
:030214000006974A
:030215000006657B
:030216000004825F
:03021700000139AA
:0302180001FD3EA7
:0302190001F9EFF9
:03021A0001FC0CD8
:03021B0000008060
:03021C000001617D
:03021D0001FFC717
:03021E0001FE14CA
:03021F0001FDCF0F
:0302200001FECC10
:0302210001FFF6E4
:03022200000112C6
:0302230000016572
:0302240001FFCB0C
:0302250001FD3B9D
:0302260001FBF9E0
:0302270001FD7B5B
:0302280000006073
:0302290000035A75
:03022A0000044B82
:03022B000001537C
:03022C0001FFD3FC
:03022D00000126A7
:03022E000001FAD2
:03022F00000109C2
:0302300001FF715A
:0302310001FEC605
:0302320001FED4F6
:0302330001FF3692
:0302340001FFD2F5
:0302350001FE7354
:0302360001FDEDDA
:0302370001FFD9EB
:0302380001FEDBE9
:0302390001FD992B
:03023A0001FE8B37
:03023B0001FE7D44
:03023C0001FE0CB4
:03023D0001FFA618
:03023E000001F6C6
:03023F000003ECCD
:030240000002DADF
:03024100000014A6
:0302420001FEBBFF
:0302430001FFC1F7
:030244000003DADA
:030245000005D1E0
:030246000005FEB2
:030247000006CDE1
:0302480000058F1F
:0302490000033D72
:03024A000000A809
:03024B0001FEC4ED
:03024C0001FEBEF2
:03024D0001FFA707
:03024E000002A803
:03024F0000059710
:030250000005A9FD
:030251000003AAFD
:0302520000025A4D
:030253000003BAEB
:030254000005D4CE
:030255000005BFE2
:030256000003D8CA
:030257000003455C
:0302580000040F90
:030259000004E6B8
:03025A000004FAA3
:03025B000003CAD3
:03025C000003EEAE
:03025D0000058217
:03025E0000058B0D
:03025F000002F2A8
:0302600001FFE5B6
:0302610001FF2A70
:0302620001FE5B3F
:0302630001FDA3F7
:0302640001FE6236
:0302650000004A4C
:0302660000038210
:0302670000059CF3
:0302680000057915
:0302690000039EF1
:03026A0000020C83
:03026B000000751B
:03026C000000810E
:03026D000000DBB3
:03026E0001FED8B6
:03026F0001FE2766
:0302700001FEDEAE
:0302710001FECBC0
:0302720001FDB2D9
:0302730001FD8A00
:0302740001FE4F39
:0302750001FFFF87
:0302760000006C19
:0302770001FDADD9
:0302780001FB90F7
:0302790001FB770F
:03027A0001FC592B
:03027B0001FC94EF
:03027C0001FBA1E2
:03027D0001FB176B
:03027E0001FAC9B9
:03027F0001FCC1BE
:0302800000004D2E
:0302810001FFB0CA
:0302820001FC5824
:0302830001FC1C5F
:0302840001FE6F09
:0302850000001462
:03028600000193E1
:030287000000EE86
:0302880001FDC8AD
:0302890001FCB6BF
:03028A000000630E
:03028B000003AEBF
:03028C00000480EB
:03028D000004D991
:03028E0000045217
:03028F000003C3A6
:030290000003C6A2
:030291000002EA7E
:0302920000016DFB
:030293000001B9AE
:030294000003ABB9
:030295000002B8AC
:0302960001FF5D08
:0302970001FEC0A5
:03029800000076ED
:0302990000017DE4
:03029A0000005908
:03029B0001FD035F
:03029C0001FB1B48
:03029D0001FC2E33
:03029E0001FDDF80
:03029F0001FF302C
:0302A00001FF93C8
:0302A10001FF99C1
:0302A20001FED783
:0302A30001FEACAD
:0302A40001FF2F28
:0302A50001FF3422
:0302A60001FDFF58
:0302A70001FBF563
:0302A80001FC5303
:0302A90001FE81D2
:0302AA000000074A
:0302AB0001FF044C
:0302AC0001FDCC85
:0302AD0001FEB19E
:0302AE0001FDB09F
:0302AF0001FC61EE
:0302B00001FD8EBF
:0302B10001FF0842
:0302B20001FFD475
:0302B30000017CCB
:0302B4000002D075
:0302B5000003A89B
:0302B6000001F450
:0302B70001FEE164
:0302B80001FEB193
:0302B90001FF162C
:0302BA0000003110
:0302BB000001A897
:0302BC000001F648
:0302BD000000F747
:0302BE0001FEAF8F
:0302BF0001FCCF70
:0302C00001FCB886
:0302C10001FC48F5
:0302C20001FD0F2C
:0302C30001FFB484
:0302C4000001D75F
:0302C5000001E253
:0302C600000173C1
:0302C700000075BF
:0302C80001FDFC39
:0302C90001FD63D1
:0302CA0001FD5FD4
:0302CB0001FDEF43
:0302CC0001FEA58B
:0302CD0001FF42EC
:0302CE000000230A
:0302CF0001FFC06C
:0302D00001FD3BF2
:0302D10001FB4AE4
:0302D20001FC64C8
:0302D30001FD0B1F
:0302D40001FC78B2
:0302D50001FD66C2
:0302D60001FF32F3
:0302D70001FFC95B
:0302D80001FF7EA5
:0302D9000000051D
:0302DA0001FF72AF
:0302DB0001FF7CA4
:0302DC0000006CB3
:0302DD0001FDB56B
:0302DE0001FCBD63
:0302DF0001FCA778
:0302E00001FB5CC3
:0302E10001FBFD21
:0302E20001FBFB22
:0302E30001FD20FA
:0302E40001FE0117
:0302E50001FA9388
:0302E60001FAB763
:0302E70001FF080C
:0302E80000001AF9
:0302E90001FF2CE6
:0302EA0001FDA271
:0302EB0001FD21F1
:0302EC0001FCF61C
:0302ED0001FD7E92
:0302EE0001FED03E
:0302EF0001FE0FFE
:0302F00001FDC24B
:0302F100000050BA
:0302F20000029473
:0302F3000001BA4D
:0302F40001FD66A3
:0302F50001FBB258
:0302F60001FEA660
:0302F70000000202
:0302F8000001F012
:0302F9000003D728
:0302FA000004D825
:0302FB0000041DDF
:0302FC0000032ECE
:0302FD000004C535
:0302FE0000049E5B
:0302FF000002EE0C
:030300000001A455
:0303010001FF9762
:0303020001FE31C8
:0303030001FF48AF
:030304000001AA4B
:03030500000236BD
:0303060000012EC5
:030307000000F7FC
:0303080000015A97
:03030900000217D8
:03030A000001B53A
:03030B00000036B9
:03030C0001FE1BD4
:03030D0001FE27C7
:03030E00000025C7
:03030F0000028168
:030310000004DF07
:0303110000037D69
:030312000000BD2B
:030313000000B136
:030314000000E402
:030315000000AD38
:03031600000013D1
:0303170001FE5B89
:0303180001FE6281
:0303190001FF449D
:03031A0001FF8759
:03031B0001FE5F81
:03031C0001FC21C0
:03031D0001FA8E54
:03031E0001FAC021
:03031F0001FAD808
:0303200001FBDE00
:0303210001FD5388
:0303220001FD27B3
:0303230001FAEDEF
:0303240001F86578
:0303250001F67866
:0303260001F5B826
:0303270001F81DBD
:0303280001FC3C99
:0303290001FDE9EA
:03032A0001FD4092
:03032B0001FD29A8
:03032C0001FD09C7
:03032D0001FC636D
:03032E0001FA31A0
:03032F0001F92BA6
:0303300001FAF1DE
:0303310001FD2E9D
:0303320001FE2F9A
:0303330001FE3197
:0303340001FCD0F9
:0303350001FB19B0
:0303360001FB5177
:0303370001FC11B5
:0303380001FB299D
:0303390001FA10B6
:03033A0001FB7351
:03033B0001FB853E
:03033C0001FAF8CB
:03033D0001FB20A1
:03033E0001FC3B84
:03033F0001FD17A6
:0303400001FBA717
:0303410001FBC6F7
:0303420001FD9822
:0303430001FEB206
:0303440001FF1E98
:0303450001FD5166
:0303460001FA5168
:0303470001F96B4E
:0303480001F905B3
:0303490001F7E1D8
:03034A0001F6EACF
:03034B0001F85660
:03034C0001FB783A
:03034D0001FDDAD5
:03034E0001FECCE1
:03034F0001FCE6C8
:0303500001FA9A15
:0303510001F9416E
:0303520001F8DBD4
:0303530001FB4566
:0303540001FCBDEC
:0303550001FBB3F6
:0303560001FC8225
:0303570001FF2D76
:0303580000000D95
:0303590001FE475B
:03035A0001FD1D85
:03035B0001FFE6B9
:03035C000003F9A2
:03035D0000057A1E
:03035E000004F4A4
:03035F0000030395
:030360000002B3E5
:0303610000038412
:030362000002FB9B
:0303630000035E36
:030364000005424F
:030365000006EBA4
:030366000006D3BB
:0303670000073C50
:0303680000092861
:030369000009E8A0
:03036A0000082563
:03036B000004404B
:03036C000000ADE1
:03036D0001FF8508
:03036E0000021872
:03036F000006AED7
:0303700000099BE6
:030371000008A8D9
:030372000004B4D0
:0303730000018204
:030374000001B9CC
:0303750000034A38
:030376000002ED95
:030377000001D7AB
:0303780000011869
:030379000002502F
:03037A000003D5A8
:03037B0000055B1F
:03037C0000049DDD
:03037D000000621B
:03037E0001FE80FD
:03037F0001FEEE8E
:0303800001FFAAD0
:0303810000008EEB
:0303820000006414
:0303830001FFD2A5
:03038400000087EF
:030385000001D89C
:0303860000023240
:030387000001E78B
:0303880001FFD69C
:0303890001FD571C
:03038A0001FEB3BE
:03038B000001F37B
:03038C000003A7C4
:03038D0000035812
:03038E000002BAB0
:03038F000002BAAF
:03039000000174F5
:030391000000A7C2
:030392000002491D
:030393000003055F
:030394000001F570
:0303950000002243
:0303960001FE92D3
:0303970001FE6EF6
:0303980001FF3230
:0303990000016CF4
:03039A000003E17C
:03039B0000045308
:03039C00000176E7
:03039D0000013B21
:03039E000003AAAF
:03039F0000039ABE
:0303A00000048DC9
:0303A10000062132
:0303A200000582D1
:0303A300000396BE
:0303A4000001ADA8
:0303A5000000084D
:0303A60001FF72E2
:0303A7000000C78C
:0303A8000002E070
:0303A900000287C8
:0303AA00000069E7
:0303AB0001FFF15E
:0303AC0000014C01
:0303AD000001E16B
:0303AE0000017FCC
:0303AF0000023811
:0303B0000002B890
:0303B100000290B7
:0303B2000002D571
:0303B300000262E3
:0303B400000273D1
:0303B500000283C0
:0303B600000248FA
:0303B70000013111
:0303B80001FFF151
:0303B90001FF95AC
:0303BA0001FCF84B
:0303BB0001FC56EC
:0303BC0001FEBF80
:0303BD00000161DB
:0303BE000002EA50
:0303BF0000030A2E
:0303C000000239FF
:0303C10000007FBA
:0303C20000003107
:0303C3000000290E
:0303C40001FFAB8B
:0303C5000001072D
:0303C600000342EF
:0303C7000004FD32
:0303C80000050825
:0303C900000486A7
:0303CA0000038E9F
:0303CB000002B37A
:0303CC0000039F8C
:0303CD0000051A0E
:0303CE0000049098
:0303CF0000027FAA
:0303D00000022EFA
:0303D10000021E09
:0303D2000002D94D
:0303D30000032BF9
:0303D400000137EE
:0303D50001FF1213
:0303D60001FC74B3
:0303D70001FCA581
:0303D80001FDD450
:0303D90001FED34F
:0303DA00000060C0
:0303DB000002C756
:0303DC000005A871
:0303DD00000645D2
:0303DE0000036AAF
:0303DF0000009E7D
:0303E0000002B464
:0303E10000073DD5
:0303E2000008F020
:0303E3000005D33F
:0303E40000038B88
:0303E500000263B0
:0303E60000029082
:0303E7000003A967
:0303E80000036EA1
:0303E900000511FB
:0303EA000005E427
:0303EB000003729A
:0303EC0000031DEE
:0303ED00000356B4
:0303EE000000C448
:0303EF0001FE31DB
:0303F00001FD907C
:0303F10001FFD633
:0303F2000000C840
:0303F300000037D0
:0303F40001FE5DAA
:0303F50001FD67A0
:0303F60001FDBE48
:0303F70001FCAC5A
:0303F80001FC4EB7
:0303F90001FD6C97
:0303FA0001FF3BC5
:0303FB00000036C9
:0303FC0000019964
:0303FD000002CC2F
:0303FE0000017289
:0303FF0001FE9765
:00000001ff
