:020000040000FA
:0300000000001BE2
:0300010000001AE2
:0300020000001AE1
:03000300000017E3
:0300040000000EEB
:03000500000003F5
:0300060001FFF9FE
:0300070001FFF006
:0300080001FFF104
:0300090001FFFCF8
:03000A00000006ED
:03000B00000006EC
:03000C0001FFFFF2
:03000D0001FFFCF4
:03000E0001FFFEF1
:03000F0001FFFBF3
:0300100001FFF6F7
:0300110001FFEFFD
:0300120001FFEDFE
:0300130001FFF6F4
:03001400000000E9
:03001500000002E6
:03001600000003E4
:0300170001FFF5F1
:0300180001FFDE07
:0300190001FFDE06
:03001A0001FFEFF4
:03001B0001FFFBE7
:03001C0001FFFBE6
:03001D0001FFF6EA
:03001E0001FFF3EC
:03001F0001FFEFEF
:0300200001FFE0FD
:0300210001FFD10B
:0300220001FFCF0C
:0300230001FFD307
:0300240001FFDBFE
:0300250001FFE9EF
:0300260001FFEBEC
:0300270001FFE7EF
:0300280001FFF0E5
:0300290001FFFCD8
:03002A0001FFF8DB
:03002B0001FFE0F2
:03002C0001FFC60B
:03002D0001FFBD13
:03002E0001FFB619
:03002F0001FFB11D
:0300300001FFB518
:0300310001FFB715
:0300320001FFBC0F
:0300330001FFC604
:0300340001FFC405
:0300350001FFB513
:0300360001FFB512
:0300370001FFC9FD
:0300380001FFE9DC
:03003900000000C4
:03003A0001FFF8CB
:03003B0001FFE1E1
:03003C0001FFD4ED
:03003D0001FFDCE4
:03003E0001FFF2CD
:03003F00000003BB
:03004000000003BA
:0300410001FFFBC1
:0300420001FFF3C8
:0300430001FFF5C5
:0300440001FFF7C2
:0300450001FFEFC9
:0300460001FFE9CE
:0300470001FFEBCB
:0300480001FFEDC8
:0300490001FFF2C2
:03004A0001FFFDB6
:03004B00000003AF
:03004C0001FFFDB4
:03004D0001FFF6BA
:03004E0001FFF1BE
:03004F0001FFE7C7
:0300500001FFEDC0
:0300510000000AA2
:030052000000307B
:0300530000004169
:0300540000003475
:0300550000000E9A
:0300560001FFE8BF
:0300570001FFE1C5
:0300580001FFF6AF
:0300590000000B99
:03005A0000000C97
:03005B0001FFFDA5
:03005C0001FFEEB3
:03005D0001FFE6BA
:03005E0001FFEBB4
:03005F0001FFFF9F
:0300600000000D90
:0300610000001785
:0300620000002279
:0300630000002575
:0300640000001683
:0300650000000098
:0300660001FFEEA9
:0300670001FFE1B5
:0300680001FFDCB9
:0300690001FFE9AB
:03006A0000000390
:03006B0000000F83
:03006C0000000C85
:03006D000000058B
:03006E0001FFF59A
:03006F0001FFDEB0
:0300700001FFD3BA
:0300710001FFCCC0
:0300720001FFCFBC
:0300730001FFDCAE
:0300740001FFDAAF
:0300750001FFD0B8
:0300760001FFD4B3
:0300770001FFDEA8
:0300780001FFE2A3
:0300790001FFDEA6
:03007A0001FFD9AA
:03007B0001FFD1B1
:03007C0001FFCEB3
:03007D0001FFE0A0
:03007E0001FFF58A
:03007F000000007E
:0300800000000479
:0300810000000676
:0300820000000675
:0300830000000872
:0300840000000C6D
:0300850000002058
:0300860000003245
:0300870000002551
:0300880000000273
:0300890001FFE391
:03008A0001FFD69D
:03008B0001FFDE94
:03008C0001FFFA77
:03008D0000001858
:03008E0000002A45
:03008F0000001757
:0300900001FFE885
:0300910001FFD399
:0300920001FFF07B
:0300930000001258
:0300940000001F4A
:0300950000001652
:0300960000000A5D
:0300970000000D59
:030098000000174E
:0300990000002B39
:03009A000000352E
:03009B0000002939
:03009C0000000E53
:03009D0001FFF66A
:03009E0001FFF669
:03009F0001FFFD61
:0300A00000000558
:0300A10000001745
:0300A20000001A41
:0300A30000000258
:0300A40001FFD188
:0300A50001FF9DBB
:0300A60001FF8DCA
:0300A70001FFA3B3
:0300A80001FFC590
:0300A90001FFD77D
:0300AA0001FFCD86
:0300AB0001FFB69C
:0300AC0001FFA6AB
:0300AD0001FF9FB1
:0300AE0001FF9BB4
:0300AF0001FFA5A9
:0300B00001FFB19C
:0300B10001FFB696
:0300B20001FFB893
:0300B30001FFBB8F
:0300B40001FFC683
:0300B50001FFD672
:0300B60001FFD96E
:0300B70001FFCD79
:0300B80001FFC382
:0300B90001FFBA8A
:0300BA0001FFBA89
:0300BB0001FFC082
:0300BC0001FFC67B
:0300BD0001FFCC74
:0300BE0001FFD669
:0300BF0001FFEE50
:0300C00000000835
:0300C1000000211B
:0300C20000002E0D
:0300C30000002911
:0300C40000001C1D
:00000001ff
