:020000040000FA
:020000000000FE
:020001000000FD
:020002000000FC
:020003000000FB
:020004000000FA
:020005000000F9
:020006000001F7
:020007000002F5
:020008000002F4
:020009000003F2
:02000A000002F2
:02000B000002F1
:02000C000001F1
:02000D000000F1
:02000E0001FFF0
:02000F0001FFEF
:0200100001FFEE
:0200110001FFED
:020012000000EC
:020013000000EB
:020014000000EA
:020015000000E9
:0200160001FFE8
:0200170001FFE7
:020018000000E6
:020019000000E5
:02001A000000E4
:02001B000000E3
:02001C000000E2
:02001D000000E1
:02001E000000E0
:02001F000000DF
:020020000000DE
:020021000000DD
:020022000000DC
:020023000000DB
:020024000000DA
:020025000000D9
:0200260001FFD8
:0200270001FED8
:0200280001FDD8
:0200290001FCD8
:02002A0001FCD7
:02002B0001FDD5
:02002C0001FED3
:02002D0001FFD1
:02002E000000D0
:02002F000000CF
:020030000000CE
:020031000000CD
:020032000000CC
:020033000000CB
:0200340001FFCA
:020035000000C9
:020036000000C8
:020037000000C7
:020038000000C6
:020039000000C5
:02003A0001FFC4
:02003B0001FFC3
:02003C0001FFC2
:02003D0001FEC2
:02003E0001FEC1
:02003F0001FEC0
:0200400001FEBF
:0200410001FFBD
:0200420001FFBC
:020043000000BB
:020044000000BA
:020045000000B9
:020046000000B8
:020047000000B7
:020048000000B6
:020049000000B5
:02004A000000B4
:02004B0001FFB3
:02004C0001FDB4
:02004D0001FCB4
:02004E0001FAB5
:02004F0001FAB4
:0200500001FBB2
:0200510001FCB0
:0200520001FDAE
:0200530001FDAD
:0200540001FDAC
:0200550001FDAB
:0200560001FDAA
:0200570001FEA8
:0200580001FEA7
:0200590001FFA5
:02005A0001FFA4
:02005B0001FFA3
:02005C0001FFA2
:02005D000000A1
:02005E0001FFA0
:02005F0001FEA0
:0200600001FDA0
:0200610001FCA0
:0200620001FC9F
:0200630001FD9D
:0200640001FE9B
:0200650001FE9A
:0200660001FF98
:0200670001FF97
:0200680001FF96
:0200690001FF95
:02006A00000094
:02006B00000093
:02006C00000092
:02006D00000091
:02006E00000090
:02006F0000008F
:0200700000008E
:0200710000008D
:0200720000008C
:0200730000008B
:0200740000008A
:02007500000089
:02007600000187
:02007700000186
:02007800000185
:02007900000184
:02007A00000084
:02007B00000083
:02007C00000082
:02007D00000081
:02007E00000080
:02007F0000007F
:0200800000027C
:0200810000037A
:02008200000478
:02008300000477
:02008400000476
:02008500000376
:02008600000276
:02008700000176
:02008800000076
:02008900000075
:02008A00000074
:02008B00000172
:02008C00000270
:02008D0000036E
:02008E0000036D
:02008F0000036C
:0200900000036B
:0200910000026B
:0200920000026A
:02009300000269
:02009400000268
:02009500000267
:02009600000266
:02009700000265
:02009800000165
:02009900000065
:02009A00000064
:02009B00000063
:02009C0001FF62
:02009D0001FF61
:02009E0001FF60
:02009F0000005F
:0200A00000005E
:0200A10000005D
:0200A20001FF5C
:0200A30001FF5B
:0200A40001FE5B
:0200A50001FF59
:0200A60001FF58
:0200A70001FF57
:0200A80001FF56
:0200A90001FF55
:0200AA0001FF54
:0200AB0001FE54
:0200AC0001FD54
:0200AD0001FD53
:0200AE0001FD52
:0200AF0001FC52
:0200B00001FC51
:0200B10001FD4F
:0200B20001FD4E
:0200B30001FE4C
:0200B40001FF4A
:0200B50001FF49
:0200B600000048
:0200B700000047
:0200B800000046
:0200B900000045
:0200BA00000044
:0200BB00000043
:0200BC00000042
:0200BD00000041
:0200BE00000040
:0200BF0000003F
:0200C00000003E
:0200C10000013C
:0200C20000013B
:0200C300000239
:0200C400000238
:0200C500000237
:0200C600000137
:0200C700000037
:00000001ff
