:020000040000FA
:020000000000FE
:020001000000FD
:020002000001FB
:020003000003F8
:020004000003F7
:020005000002F7
:020006000001F7
:020007000000F7
:020008000000F6
:020009000000F5
:02000A000000F4
:02000B000000F3
:02000C000000F2
:02000D000000F1
:02000E000001EF
:02000F000002ED
:020010000002EC
:020011000002EB
:020012000001EB
:020013000000EB
:020014000000EA
:0200150001FFE9
:0200160001FFE8
:0200170001FFE7
:0200180001FFE6
:0200190001FFE5
:02001A0001FFE4
:02001B0001FFE3
:02001C000000E2
:02001D000001E0
:02001E000001DF
:02001F000001DE
:020020000001DD
:020021000001DC
:020022000001DB
:020023000000DB
:020024000000DA
:020025000000D9
:020026000000D8
:0200270001FED8
:0200280001FDD8
:0200290001FCD8
:02002A0001FCD7
:02002B0001FDD5
:02002C0001FED3
:02002D0001FED2
:02002E0001FED1
:02002F0001FED0
:0200300001FFCE
:0200310001FFCD
:0200320001FFCC
:0200330001FFCB
:0200340001FFCA
:0200350001FFC9
:020036000000C8
:0200370001FFC7
:0200380001FFC6
:0200390001FEC6
:02003A0001FEC5
:02003B0001FFC3
:02003C000000C2
:02003D000000C1
:02003E000000C0
:02003F000000BF
:020040000000BE
:0200410001FFBD
:0200420001FEBD
:0200430001FEBC
:0200440001FEBB
:0200450001FFB9
:0200460001FFB8
:0200470001FFB7
:0200480001FFB6
:020049000000B5
:02004A000000B4
:02004B000000B3
:02004C000000B2
:02004D000000B1
:02004E0001FFB0
:02004F0001FEB0
:0200500001FEAF
:0200510001FEAE
:0200520001FDAE
:0200530001FCAE
:0200540001FCAD
:0200550001FCAC
:0200560001FDAA
:0200570001FDA9
:0200580001FEA7
:0200590001FFA5
:02005A000000A4
:02005B000000A3
:02005C000000A2
:02005D000000A1
:02005E0001FFA0
:02005F0001FEA0
:0200600001FDA0
:0200610001FCA0
:0200620001FC9F
:0200630001FC9E
:0200640001FE9B
:0200650001FF99
:02006600000098
:02006700000097
:02006800000195
:02006900000194
:02006A00000193
:02006B00000192
:02006C00000092
:02006D00000091
:02006E00000090
:02006F0001FE90
:0200700001FD90
:0200710001FC90
:0200720001FC8F
:0200730001FD8D
:0200740001FF8A
:02007500000089
:02007600000088
:02007700000186
:02007800000185
:02007900000184
:02007A00000084
:02007B00000083
:02007C00000082
:02007D00000081
:02007E00000080
:02007F0000017E
:0200800000017D
:0200810000027B
:0200820000027A
:02008300000279
:02008400000278
:02008500000277
:02008600000375
:02008700000374
:02008800000373
:02008900000372
:02008A00000371
:02008B00000271
:02008C00000270
:02008D0000036E
:02008E0000036D
:02008F0000036C
:0200900000026C
:0200910000026B
:0200920000016B
:0200930000016A
:02009400000169
:02009500000168
:02009600000167
:02009700000067
:02009800000066
:02009900000065
:02009A00000163
:02009B00000360
:02009C0000035F
:02009D0000035E
:02009E0000025E
:02009F0000025D
:0200A00000015D
:0200A10000005D
:0200A20000005C
:0200A30000005B
:0200A40000005A
:0200A500000059
:0200A600000058
:0200A700000057
:0200A800000056
:0200A900000055
:0200AA00000054
:0200AB00000053
:0200AC00000052
:0200AD00000051
:0200AE00000050
:0200AF0000004F
:0200B00000004E
:0200B10000004D
:0200B20000004C
:0200B30000004B
:0200B40001FF4A
:0200B50001FE4A
:0200B60001FD4A
:0200B70001FD49
:0200B80001FC49
:0200B90001FB49
:0200BA0001FB48
:0200BB0001FC46
:0200BC0001FD44
:0200BD0001FE42
:0200BE0001FF40
:0200BF0000003F
:0200C00000003E
:0200C10000003D
:0200C20000003C
:0200C30001FF3B
:0200C40001FF3A
:0200C50001FF39
:0200C600000038
:0200C700000037
:00000001ff
