:020000040000FA
:0200000001FEFF
:0200010001FEFE
:0200020001FEFD
:0200030001FFFB
:020004000000FA
:020005000000F9
:0200060001FFF8
:0200070001FFF7
:0200080001FFF6
:0200090001FFF5
:02000A000000F4
:02000B000000F3
:02000C000000F2
:02000D000000F1
:02000E000000F0
:02000F000001EE
:020010000002EC
:020011000001EC
:020012000001EB
:020013000000EB
:020014000000EA
:020015000000E9
:0200160001FFE8
:0200170001FFE7
:0200180001FFE6
:0200190001FFE5
:02001A000000E4
:02001B000000E3
:02001C000000E2
:02001D000000E1
:02001E000000E0
:02001F0001FEE0
:0200200001FDE0
:0200210001FCE0
:0200220001FCDF
:0200230001FDDD
:0200240001FDDC
:0200250001FDDB
:0200260001FED9
:0200270001FDD9
:0200280001FDD8
:0200290001FCD8
:02002A0001FCD7
:02002B0001FCD6
:02002C0001FDD4
:02002D0001FED2
:02002E000000D0
:02002F000000CF
:020030000001CD
:020031000000CD
:020032000000CC
:0200330001FFCB
:0200340001FECB
:0200350001FFC9
:020036000000C8
:020037000000C7
:020038000000C6
:020039000000C5
:02003A000000C4
:02003B000001C2
:02003C000002C0
:02003D000003BE
:02003E000003BD
:02003F000003BC
:020040000002BC
:020041000001BC
:020042000000BC
:020043000000BB
:020044000000BA
:020045000000B9
:0200460001FFB8
:0200470001FFB7
:0200480001FFB6
:0200490001FFB5
:02004A000000B4
:02004B000000B3
:02004C000001B1
:02004D000001B0
:02004E000001AF
:02004F000000AF
:020050000000AE
:020051000000AD
:020052000000AC
:020053000000AB
:020054000000AA
:020055000000A9
:020056000000A8
:020057000000A7
:020058000000A6
:020059000000A5
:02005A0001FFA4
:02005B0001FDA5
:02005C0001FCA5
:02005D0001FBA5
:02005E0001FBA4
:02005F0001FCA2
:0200600001FCA1
:0200610001FD9F
:0200620001FE9D
:0200630001FE9C
:0200640001FE9B
:0200650001FE9A
:0200660001FD9A
:0200670001FD99
:0200680001FD98
:0200690001FD97
:02006A0001FE95
:02006B0001FE94
:02006C0001FF92
:02006D00000091
:02006E00000090
:02006F0000008F
:0200700000008E
:0200710000008D
:0200720000008C
:0200730000008B
:0200740000008A
:02007500000089
:02007600000088
:02007700000087
:02007800000086
:02007900000085
:02007A00000084
:02007B00000083
:02007C00000082
:02007D00000081
:02007E00000080
:02007F0001FF7F
:0200800001FE7F
:0200810001FE7E
:0200820001FD7E
:0200830001FD7D
:0200840001FE7B
:0200850001FE7A
:0200860001FE79
:0200870001FD79
:0200880001FD78
:0200890001FE76
:02008A0001FF74
:02008B00000073
:02008C00000072
:02008D00000071
:02008E00000070
:02008F0000006F
:0200900000006E
:0200910000006D
:0200920000016B
:02009300000269
:02009400000268
:02009500000366
:02009600000464
:02009700000463
:02009800000462
:02009900000461
:02009A00000460
:02009B0000045F
:02009C0000035F
:02009D0000035E
:02009E0000025E
:02009F0000025D
:0200A00000015D
:0200A10000015C
:0200A20000015B
:0200A30000015A
:0200A400000159
:0200A500000158
:0200A600000157
:0200A700000156
:0200A800000056
:0200A900000055
:0200AA0001FF54
:0200AB0001FF53
:0200AC0001FF52
:0200AD0001FF51
:0200AE00000050
:0200AF0000004F
:0200B00000004E
:0200B10000004D
:0200B20000004C
:0200B30000004B
:0200B40000004A
:0200B50001FF49
:0200B60001FF48
:0200B70001FE48
:0200B80001FE47
:0200B90001FF45
:0200BA0001FF44
:0200BB00000043
:0200BC00000042
:0200BD00000041
:0200BE00000040
:0200BF0000003F
:0200C00000003E
:0200C10000003D
:0200C20000003C
:0200C30000003B
:0200C40000003A
:0200C500000039
:0200C600000038
:0200C700000037
:00000001ff
